:10000000A8C00020E1020000DD020000DD020000C7
:10001000DD020000DD020000DD0200000000000043
:10002000000000000000000000000000DD020000F1
:10003000DD02000000000000DD020000DD02000023
:10004000DD020000DD020000DD020000DD02000034
:10005000DD020000DD020000DD020000DD02000024
:10006000DD020000DD020000DD020000B110000032
:10007000DD020000DD020000DD020000DD02000004
:10008000DD020000DD020000DD020000DD020000F4
:10009000DD020000DD020000DD020000DD020000E4
:1000A000DD020000DD020000DD020000DD020000D4
:1000B000DD020000890E00009D0E0000DD02000040
:1000C000DD020000DD020000DD020000DD020000B4
:1000D000DD020000DD020000DD020000DD020000A4
:1000E000DD020000DD020000000000000000000052
:1000F0000000000001100000DD020000DD02000031
:10010000DD020000DD020000DD020000DD02000073
:10011000DD020000DD020000DD020000DD02000063
:10012000DD020000DD020000DD020000DD02000053
:10013000DD020000DD020000DD020000DD02000043
:10014000DD020000DD020000DD020000DD02000033
:10015000DD020000DD0200000000000000000000E1
:10016000000000000000000000000000000000008F
:10017000000000000000000000000000000000007F
:10018000DD020000DD020000DD020000DD020000F3
:1001900000000000DD020000DD020000DD020000C2
:1001A000DD020000DD020000DD020000DD020000D3
:1001B000DD020000DD020000DD020000DD020000C3
:1001C000DD020000DD020000DD020000DD020000B3
:1001D000DD02000000000000000000000000000040
:1001E000000000000000000000000000DD02000030
:1001F000DD020000DD020000DD0200000000000062
:10020000000000000000000000000000DD0200000F
:10021000DD020000DD020000DD020000DD02000062
:10022000DD020000DD020000DD020000DD02000052
:10023000DD020000DD020000DD020000DD02000042
:1002400000000000DD020000DD020000DD02000011
:10025000DD020000DD020000DD020000DD02000022
:100260000000000010B5054C237833B9044B13B1DE
:100270000448AFF300800123237010BD000000206C
:1002800000000000B01C00000C4B43B10C480D49AD
:1002900010B5AFF300800C48036823B910BD0A48BD
:1002A000036833B97047094B002BF7D0BDE8104005
:1002B0001847064B002BF5D0184700BF0000000080
:1002C000B01C000004000020B01C00000000000072
:1002D00008B5014B984708BD61070000FEE7000024
:1002E00008B51C4B1C4A9A4210D01C4B194A9A4222
:1002F0000CD2013B9B1A23F0030304331344164929
:1003000051F8040B42F8040B9A42F9D1144B154AE8
:100310009A420AD2013B9B1A23F00303043313448D
:10032000002142F8041B9342FBD10F4B0F4A22F0ED
:100330007F029A60D3F8882042F47002C3F88820C4
:10034000BFF34F8FBFF36F8F094B9847094B984707
:10035000FEE700BF00000020B01C000000000020ED
:10036000A80000200000002000ED00E000000000D8
:10037000AD1A0000D9140000024A136943F040038B
:10038000136170470008004008B5034B98470349C4
:100390000348044B984708BD790300000040004122
:1003A000300000204108000030B45A4B4FF4006583
:1003B000C3F88450584AC3F8A8205848C3F8A80086
:1003C00093F8CB2002F0FB0283F8CB2093F8CB20EC
:1003D00002F0FE0242F0010283F8CB2093F8B52030
:1003E00002F00F0242F0700283F8B5204FF48072E1
:1003F0009A604B4999624FF040449C625A6193F86D
:10040000482002F0FB0283F8482093F8482002F0CD
:10041000FE0242F0010283F8482093F8342002F0F3
:10042000F00242F0070283F834204FF400729A6021
:1004300001F5807199629C625A6193F8492002F03B
:10044000FB0283F8492093F8492002F0FE0242F0B3
:10045000010283F8492093F8342002F00F0242F0A1
:10046000700283F834204FF4806199602D4A9A62BB
:100470009C62596193F84A2002F0FB0283F84A20FB
:1004800093F84A2002F0FE0242F0010283F84A206B
:1004900093F8352002F0F00242F0070283F835208D
:1004A0009D60214A9A629C625D6193F84B2002F044
:1004B000FB0283F84B2093F84B2002F0FE0242F03F
:1004C000010283F84B2093F8352002F00F0242F02E
:1004D000700283F83520C3F88410144AC3F8A820AA
:1004E000C3F8A80093F8CA2002F0FB0283F8CA20E0
:1004F00093F8CA2002F0FE0242F0010283F8CA20FB
:1005000093F8B52002F0F00242F0070283F8B5201C
:1005100030BC70470080004100080240000002C06B
:1005200000010040000400400008004000040240B8
:10053000064B1A6942F400521A611A6942F4001219
:100540001A61DA6942F40052DA617047000800402B
:1005500008B5044B984704490448054B9847054B98
:10056000984708BD310500000034004268000020B3
:100570006D0A0000A9030000284B10225A619A60FE
:1005800002F180429A624FF04041996293F8442010
:1005900002F0FE0242F0010283F8442093F8322078
:1005A00002F0F00242F0030283F8322020225A6166
:1005B0009A6002F180429A62996293F8452002F0B3
:1005C000FE0242F0010283F8452093F8322002F047
:1005D0000F0242F0300283F8322040225A6002F1CA
:1005E000804202F500329A620D4A9A6293F84620E0
:1005F00002F0FB0283F8462093F8462002F0FE0248
:1006000042F0010283F8462093F8332002F0F00212
:1006100042F0030283F83320704700BF008000419E
:10062000000002C0064B4022C3F89C204322C3F8BE
:100630008C20044A536943F480535361704700BFD0
:10064000001C00400008004008B5044B98470449CE
:100650000448054B9847054B984708BD2506000000
:100660000030004050000020F50A0000790500002D
:10067000164B93F8512002F0FB0283F8512093F8B7
:10068000512002F0FE0242F0010283F8512093F85B
:10069000382002F00F0242F0300283F8382093F83D
:1006A000502002F0FB0283F8502093F8502002F013
:1006B000FE0242F0010283F8502093F8382002F045
:1006C000F00242F0030283F83820704700800041B6
:1006D000064B4022C3F8E0204322C3F88C20044A92
:1006E000936943F480639361704700BF001C00402E
:1006F0000008004008B5044B984704490448054BDE
:100700009847054B984708BDD106000000400141BD
:100710006C0000205D09000071060000024A536968
:1007200043F48073536170470008004008B5064BDE
:100730009847482205490120054B98470548064B34
:100740000360064B984708BD1D070000F41A00001F
:10075000110D00004C000020002000406D1400002E
:1007600008B50B4B98470B4B98470B4A536943F41A
:1007700000735361094B98470246094909480A4BDF
:1007800098470A4B98470A4B98470A4B984708BD29
:10079000790D00008903000000080040AD10000042
:1007A0000024004078000020D50C0000490600001D
:1007B000F50600002D07000008B5024B9847024BD4
:1007C000984708BD510500007D1A000070B582B041
:1007D00005460E46094C01A92046094B98471021B1
:1007E0002046084B98472046074B984732462946F3
:1007F0000198064B984702B070BD00BF6C00002006
:10080000110A0000A5090000E90900003D0A0000E6
:10081000EFF31083036072B6BFF35F8F7047BFF3CF
:100820005F8F036883F31088704708B5436903B18D
:10083000984708BD08B5836903B1984708BD000013
:1008400038B50D46044690B1081C18BF0120382267
:100850000849094B984729462046084B98470346C4
:1008600018B9074A2260074A6260184638BD00205E
:10087000EDE700BF101B0000110D0000110E00007D
:100880002B080000350800002DE9F8430F4690467C
:10089000044620B329B3101C18BF0120B622124908
:1008A000124B9847043C124D2046A8470028FBD025
:1008B000013F0026DFF840900D4D17F8011F20463C
:1008C000C8472046A8470028FBD00136B6B2B0453D
:1008D000F3D82046074B98473046BDE8F883002000
:1008E000DCE70020DAE700BF281B0000110D000044
:1008F0007F12000093120000711200002DE9F843EE
:100900000F4690460446E0B1E9B1101C18BF012023
:100910009C220E490E4B9847013F0026043C0D4D8A
:10092000DFF834902046A8470028FBD02046C8476F
:1009300007F8010F0136B6B2B045F3D83046BDE82E
:10094000F8830020E4E70020E2E700BF281B000056
:10095000110D0000891200007712000038B50D4615
:10096000044690B1081C18BF012035220849094BE4
:10097000984729462046084B9847034618B9074A26
:10098000A260074A6260184638BD0020EDE700BF4C
:10099000281B0000110D00000D120000FD080000D2
:1009A0008908000038B50D46044651220A49003036
:1009B00018BF0120094B98472046094B984720B1A2
:1009C00029462046074B984738BD05F07F01204651
:1009D000044B984738BD00BF281B0000110D0000D4
:1009E000571200006112000010B504465F2205494D
:1009F000003018BF0120044B98472046034B98470E
:100A000010BD00BF281B0000110D000041120000A6
:100A100038B50D46044650B1081C18BF012073229A
:100A20000449054B984704342C60002038BD002051
:100A3000F5E700BF281B0000110D000070B50D4642
:100A40001646044660B1081C18BF01203D22054926
:100A5000054B98476368324629462046984770BD43
:100A60000020F3E7441B0000110D000038B50C46D0
:100A7000054658B1081C18BF012031220449054B16
:100A8000984721462846044B984738BD0020F4E794
:100A9000581B0000110D0000E50E000010B50446C3
:100AA0003F220549003018BF0120044B98472046DB
:100AB000034B984710BD00BF581B0000110D0000EC
:100AC0001D0F000038B50C46054658B1081C18BF6C
:100AD00001204D220449054B984721462846044BE6
:100AE000984738BD0020F4E7581B0000110D0000A6
:100AF000290F000038B50D460446B8B1081C18BFD0
:100B0000012040220A490B4B9847204640F8045FD9
:100B10002946094B9847002807DB4FF40043A3827E
:100B2000064B2361064BE360002038BD0020E8E758
:100B3000741B0000110D00009D120000C10B00008D
:100B4000850B000030B585B00C46054690B1081CF9
:100B500018BF0120B3220849084B98472368019326
:100B600063680293A368039301A9281D044B984767
:100B700005B030BD0020EDE7741B0000110D000032
:100B80008D13000070B584B00E4615460446A322AE
:100B90000849003018BF0120074B984700230293F3
:100BA0000196039501A9A4F10C00044B984704B0E9
:100BB00070BD00BF741B0000110D0000450B00004C
:100BC00070B584B00E4615460446872208490030A9
:100BD00018BF0120074B9847029600230193039505
:100BE00001A9A4F10C00044B984704B070BD00BFEC
:100BF000741B0000110D0000450B0000F8B5844681
:100C000007682FB18D683C460026C2F1010E0BE04B
:100C10000E4B9847F8BD7344A0680344AB420AD218
:100C20002368264653B11C4663689342F3D8A068F4
:100C300003449B1AF2E7A74204D034462046044BF3
:100C40009847F8BD6046014B9847F8BD390D000044
:100C5000650D00002DE9F047446907690137076118
:100C6000037E13F0010F13D1037E13F0020F0FD197
:100C700054B36368FB1AA268934207D3064600F197
:100C80001408DFF84890DFF848A012E0BDE8F087CC
:100C9000037E43F002030376BDE8F0877569E368DD
:100CA0002046984785B12C466B68FB1AAA68934288
:100CB0000AD34046C847237C012BEFD167603A46F0
:100CC00021464046D047E9E7BDE8F0876D0D0000BA
:100CD000FD0B000038B50D46044678B1081C18BF5E
:100CE00001203B220649074B984729462046064BE0
:100CF000984700202061054B236038BD0020F0E7B5
:100D0000901B0000110D000045100000550C000064
:100D100000B900BE704703684BB18B4209D01B6815
:100D20001BB19942FBD10120704700207047002081
:100D3000704701207047000038B504460D46064B49
:100D4000984780F0010039220449C0B2044B98470B
:100D500023682B60256038BD170D0000A81B00001C
:100D6000110D000003680B600160704703680BB150
:100D70001A6802601846704708B5084A13889BB283
:100D80001380074B9847074B9847074B9847074BEB
:100D9000984740F6FF70064B984708BD0040004159
:100DA000B10E0000C50E0000D90D0000E10E0000DC
:100DB000B50D000010F0010F08D0054A054B1A626E
:100DC000194643F6FD724B681342FCD1704700BFD1
:100DD00001010100001C00400122014B5A717047C3
:100DE0000008004008B503691A8A12F0010F05D007
:100DF00001221A82036853B1984708BD1A8A92B239
:100E00002AB140F25E221A82436803B1984708BDB6
:100E100038B50C46054650B31648814214BF002031
:100E200001204B221449154B98472C61238823F04D
:100E3000C0039B049B0C2380114B1D60114B4FF092
:100E40000051C3F88010BFF34F8FBFF36F8F4FF087
:100E50008042C3F88020BFF34F8FBFF36F8FC3F87A
:100E60008011C3F8802119601A60002038BD00206D
:100E7000D7E700BF00400041C81B0000110D000073
:100E80001C00002000E100E008B5024B1868024B8E
:100E9000984708BD1C000020E50D000008B5024B76
:100EA0001868024B984708BD1C000020E50D0000A3
:100EB000034BDA6902F47C52DA6101221A7470473A
:100EC00000140040044A054B9A611A46136913F056
:100ED000020FFBD0704700BF062600030010004041
:100EE0007047000038B50C46054680B1081C18BF95
:100EF000012040220749084B98472C6001232360BA
:100F0000112363604FF40073A360002038BD0020FC
:100F1000EFE700BFE81B0000110D0000036802228C
:100F20001A6000207047000070B505460C46036843
:100F30000A7812F0200F1CBF8A681A630A7812F030
:100F4000100F05D0596B21F0FF0122790A435A6333
:100F5000227812F0400F06D05A6B22F47F0261799A
:100F600042EA01425A6322689A63237813F0800FA1
:100F70000CD12B681F4A1A602A68D36913F4806F5A
:100F8000FBD04FF48063D361002070BD296813F05B
:100F9000200F1ABFA26802F180664FF080668B6B4B
:100FA0002369ABB1012082221349144B984723696E
:100FB0009BB1E06838B1721E184413F8011B02F8A7
:100FC000011F8342F9D1BFF34F8FBFF36F8FD0E77B
:100FD0006069003018BF0120E5E76369E168002916
:100FE000F1D0013B314416F8012B03F8012FB14237
:100FF000F9D1E8E702000001E81B0000110D000034
:1010000000B583B00D4B9B78DBB20193019B13F0CD
:10101000020F06D00A4B1B681BB1084A506898475C
:1010200009E0019B13F0010F05D0054B5B6813B17C
:10103000024A5068984703B05DF804FB0000024183
:101040009400002038B50C46054630221449003083
:1010500018BF0120134B9847EC600123238048F20E
:10106000030223691342FCD1EB681A6912F0010FE5
:10107000FBD148F280021A8048F203011A690A4241
:10108000FCD1EA6820231362136913F0600FFBD1CF
:10109000EB684FF480725A81034B1D60002038BD0D
:1010A000001C0000110D00002000002000207047EF
:1010B00010B5084B1C68E3689B8913F4807F07D048
:1010C00023680BB120469847E3684FF480729A81F9
:1010D00010BD00BF2000002070B487B006466C46EB
:1010E0000C4D0FCD0FC495E8030084E80300009B6E
:1010F000B3420CD0324601205DF82030934207D035
:1011000001300628F8D1002007B070BC70470020DD
:10111000C0B2F9E7181C000010B504461D4B9847F3
:10112000032808D040F2B7721B4900201B4B984798
:101130006FF00C0010BDE36913F0010F19D1E369E2
:1011400013F0030FFBD1236813F0020F0BD02368B9
:1011500023F002032360E36913F0030FFBD1E3697B
:1011600013F0020FFBD111232360E36913F0030F87
:10117000FBD1E36913F0010FFBD1094B2360E36955
:1011800013F0030FFBD14FF4A0636360202363626D
:10119000002010BDD9100000481C0000110D0000F7
:1011A0001000200070B582B004460E46E36913F0CB
:1011B000030FFBD12568C5F3400501A8114B9847E3
:1011C000236823F002032360E36913F0030FFBD1CC
:1011D000636A23F4FF6323F0060340F2FE7101EA21
:1011E00046011943616201A8074B98473DB1236846
:1011F00043F002032360E36913F0030FFBD10020E7
:1012000002B070BD110800001F08000038B50C4680
:10121000054640F2A6620749003018BF0120064B80
:1012200098472046054B9847034600B92C6018465E
:1012300038BD00BF481C0000110D0000191100004E
:101240000268136843F002031360D36913F0030FBD
:10125000FBD1002070470368586AC0F3C030704764
:1012600008B50068014B984708BD00BFA5110000F4
:101270000368996270470368986AC0B27047036850
:10128000187EC0F3800070470368187EC0F38000AA
:101290007047036804221A760020704738B5054667
:1012A0000C460846354B984760B1002D54D040F6A7
:1012B0003C123349201C18BF0120324B98476FF075
:1012C0000C0038BD002D50D140F63C122C490020B6
:1012D0002C4B9847E36913F0010F19D1E36913F020
:1012E000030FFBD1236813F0020F0BD0236823F008
:1012F00002032360E36913F0030FFBD1E36913F0EA
:10130000020FFBD10D232360E36913F0030FFBD120
:10131000E36913F0010FFBD12C6040F60612184967
:10132000201C18BF0120174B9847174B2360E36917
:1013300013F0030FFBD14FF400336360E36913F044
:10134000170FFBD10020207384F8300001232B718C
:1013500040F2FF13EB8038BD40F63C1208490020F4
:10136000084B98476FF00C0038BD40F63C1204491A
:10137000201C18BF0120034B9847ABE7D910000091
:10138000481C0000110D00000C0020002DE9F8435E
:1013900081460E460468D1F800804D680779A8B1EF
:1013A000201C18BF01204FF42A622E492E4B98476B
:1013B000E36913F0070F34D1E06910F00300FBD1AB
:1013C000236813F0020F30D0024608E00020EAE75D
:1013D000013213F0800F12D1B36883421ED9237EED
:1013E000DBB213F0040F24D0A16A002DF0D02970D5
:1013F000012F91BF0135090A69700235E8E74FF600
:10140000FF736383802323766FF01200237E13F033
:10141000030FFBD003232376BDE8F8839342DED885
:10142000F4E76FF00300BDE8F8836FF01300BDE848
:10143000F8839042CDD813F0010FCAD0B9F8061046
:10144000B8F1000F0BD098F80010012F91BF08F1F0
:10145000010898F801E041EA0E2108F10208013084
:10146000A162B6E7481C0000110D000010B504464B
:1014700030B30068003018BF012050221449154BCA
:10148000984723689A6812F00E0FFBD11A78D20998
:1014900018D19A6812F00E0FFBD11A7812F0020FD1
:1014A00013D11A7802F0FB021A709A6812F00E0F2C
:1014B000FBD12268537803F0F0035370002010BD75
:1014C0000020DAE76FF0100010BD6FF0100010BDC3
:1014D000641C0000110D00002DE9F04385B000AF41
:1014E000174B9847174D184C184E0A21381DA8471E
:1014F000A0473B79CC2BF8D17B79BB2BF5D1E846C3
:10150000BB79FA79120442EA03627B7A1A43387A89
:10151000B97AFB7A1B0443EA0163797B0B43397B7D
:1015200043EA0123D91D21F00701ADEB010D42EA89
:10153000002269463068DFF81890C847C546D4E7EE
:10154000D1020000CD070000B9070000A400002070
:10155000731A000000B589B000230193029303932E
:10156000059301F0070141F090018DF804108DF80A
:1015700008200423049307AB069301A9034B984763
:101580009DF81C0009B05DF804FB00BFC50A00000F
:10159000F8B5074605260025044C3246294638464C
:1015A000A04710F0010FF8D1F8BD00BF551500009D
:1015B000F0B587B004461646002A14BF062204225E
:1015C000002300930193029303930493059301F086
:1015D000070141F010018DF800108DF8042005225C
:1015E00019460B4B9847C0F34000B0420DD035462A
:1015F000084F074E69462046B8470522002120467D
:10160000B047C0F34000A842F4D107B0F0BD00BF1E
:1016100055150000C50A0000F0B587B006460F4614
:101620000024009401940294059401F0070545F00C
:1016300090058DF800504FF000054FF0020E6EF34C
:1016400005158DF801508DF80420042203920493AF
:101650000122064DA84769463046054B9847224669
:1016600039463046A84707B0F0BD00BFB1150000AD
:10167000C50A000070B586B0056800240094019486
:101680000494B0248DF800404FF00004012666F366
:1016900005148DF8014008248DF802400B248DF8C4
:1016A0000440029203930591037A4BB16B238DF8AA
:1016B00004309DF80030022262F302038DF80030FE
:1016C00069462846024B9847002006B070BD00BF0F
:1016D000C50A0000F8B504460F4601220021084D56
:1016E000A8472046074EB04739462046064B984744
:1016F0002046B047002211462046A847F8BD00BF4B
:10170000B115000091150000C50A00002DE9F04F49
:1017100089B001921E46036800930023029303934D
:101720000793B0238DF8083030238DF80930022359
:101730008DF80C30049205960691370A23D08B461B
:101740000C4600254FF4807A019BA3EB0109DFF8DA
:101750005080CDF814A004EB09030493069402A969
:101760000098C04704F580740135AF42F1D12D02D5
:101770000BEB0502019B1D4416F0FF0308D100206E
:1017800009B0BDE8F08F02A90098054B9847F6E72D
:1017900005930495069202A90098014B9847EEE73D
:1017A000D51600002DE9F04387B0154606680023E2
:1017B00000930193029303930493059330238DF8D0
:1017C00000304FF00003022262F305138DF8013060
:1017D00041EA0503C3F30B03002B5ED10C4605223F
:1017E00000213046314B984710F0010F03D0022002
:1017F00007B0BDE8F0830122002130462C4B98470A
:1018000014B9B5F5001F07D2002D3FD04FF0D8090D
:10181000DFF8A480274F26E09DF800306FF34513D2
:101820008DF80030C7238DF8043069463046224BCE
:101830009847A5F5001530461E4B9847E4E7C4F3DA
:101840000B036BBBB5F5805F2DD3029420238DF87D
:10185000043069463046C04704F58054A5F58055EC
:101860003046B84795B1A3B2002BE8D1B5F5803F1B
:10187000E5D302948DF8049069463046C04704F5DC
:101880008034A5F580353046B847EBE70022114695
:101890003046074B98470020AAE76FF00C00A7E7F7
:1018A0006FF00C00A4E76FF00C00A1E755150000E5
:1018B000B115000091150000C50A0000F0B589B00F
:1018C000046800250195029503950595F4238DF88C
:1018D0000430022343F050028DF8052005228DF8D4
:1018E0000620EB218DF808108DF8093001230493B0
:1018F0000DF11F03069329462046174EB0478DF879
:101900001C00352229462046B0478DF81D003322A1
:1019100029462046B0478DF81E009DF81D0010F0A6
:10192000020F12D10D4F40F002008DF81D0007ABE1
:10193000012229462046B847352229462046B0478D
:101940008DF81D0010F0020FEDD001A92046044BC8
:101950009847002009B0F0BD551500001916000089
:10196000C50A000030B587B00568002400940194D2
:10197000029403940494059410238DF80030FF23FF
:101980008DF8043006492846064B98472846064BF2
:10199000984769462846054B9847204607B030BD12
:1019A000003400426D0A00009D0A0000C50A0000D4
:1019B0002DE9F04182B006461746284A284B984741
:1019C0003468052200212046264DA8478DF80400E2
:1019D000352200212046A8478DF80500332200213A
:1019E0002046A8478DF806003772CFB99DF805004C
:1019F00010F0020F2DD00025DFF86C80194F20F079
:101A000002008DF8050001AB012229462046C0479F
:101A1000352229462046B84710F0020FEFD118E0D2
:101A20009DF8050010F0020F13D10025DFF8388073
:101A30000C4F40F002008DF8050001AB0122294651
:101A40002046C047352229462046B84710F0020FED
:101A5000EFD0304602B0BDE8F08100BF7C1C000032
:101A60006D1A000055150000191600000160426053
:101A7000704710B544682468A04710BD10B5064CE7
:101A80002046064B9847002221460548054B9847BB
:101A9000054B186010BD00BF680000209D0A0000C3
:101AA00024000020B1190000A400002070B50D4EE4
:101AB0000D4CA41BA4100025A54209D10B4E0C4CC3
:101AC00000F0E6F8A41BA4100025A54205D170BDC6
:101AD00056F8253098470135EEE756F825309847F7
:101AE0000135F2E79C1C00009C1C00009C1C0000BF
:101AF000A01C00002E2E2F68616C2F696E636C7520
:101B000064652F68616C5F7764742E680000000064
:101B10002E2E2F68616C2F7372632F68616C5F6665
:101B20006C6173682E6300002E2E2F68616C2F731A
:101B300072632F68616C5F6932635F735F73796E84
:101B4000632E63002E2E2F68616C2F7372632F68D3
:101B5000616C5F696F2E63002E2E2F68616C2F738E
:101B600072632F68616C5F717370695F73796E6304
:101B70002E6300002E2E2F68616C2F7372632F6806
:101B8000616C5F7370695F6D5F73796E632E630064
:101B90002E2E2F68616C2F7372632F68616C5F74D7
:101BA000696D65722E6300002E2E2F68616C2F7593
:101BB00074696C732F7372632F7574696C735F6CC7
:101BC0006973742E630000002E2E2F68706C2F6EC8
:101BD000766D6374726C2F68706C5F6E766D637473
:101BE000726C2E63000000002E2E2F68706C2F7117
:101BF0007370692F68706C5F717370692E63000079
:101C00002E2E2F68706C2F7274632F68706C5F7249
:101C100074632E6300000000003000400034004078
:101C20000020014100400141000000430004004346
:101C300000000000000000000000000000000000A4
:101C400000000000000000002E2E2F68706C2F7323
:101C50006572636F6D2F68706C5F736572636F6D13
:101C60002E6300002E2E2F68706C2F7764742F68FF
:101C7000706C5F7764742E630000000075160000BE
:101C80000D170000A5170000BD1800006519000021
:101C9000F8B500BFF8BC08BC9E467047890200003A
:101CA000F8B500BFF8BC08BC9E467047650200004E
:00000001FF
