S013000066625F61746D656C5F66772E737265639B
S1130000A0C00020ED020000DD020000DD020000BF
S1130010DD020000DD020000DD020000000000003F
S1130020000000000000000000000000DD020000ED
S1130030DD02000000000000DD020000DD0200001F
S1130040DD020000DD020000DD020000DD02000030
S1130050DD020000DD020000DD020000DD02000020
S1130060DD020000DD020000DD020000690E000078
S1130070DD020000DD020000DD020000DD02000000
S1130080DD020000650C0000710C00007D0C000016
S1130090DD020000DD020000DD020000DD020000E0
S11300A0DD020000DD020000DD020000DD020000D0
S11300B0DD0200005D0D0000710D0000DD02000096
S11300C0DD020000DD020000DD020000DD020000B0
S11300D0DD020000DD020000DD020000DD020000A0
S11300E0DD020000DD02000000000000000000004E
S11300F000000000B90D0000DD020000DD02000078
S1130100DD020000DD020000DD020000DD0200006F
S1130110DD020000DD020000DD020000DD0200005F
S1130120DD020000DD020000DD020000DD0200004F
S1130130DD020000DD020000DD020000DD0200003F
S1130140DD020000DD020000DD020000DD0200002F
S1130150DD020000DD0200000000000000000000DD
S1130160000000000000000000000000000000008B
S1130170000000000000000000000000000000007B
S1130180DD020000DD020000DD020000DD020000EF
S113019000000000DD020000DD020000DD020000BE
S11301A0DD020000DD020000DD020000DD020000CF
S11301B0DD020000DD020000DD020000DD020000BF
S11301C0DD020000DD020000DD020000DD020000AF
S11301D0DD0200000000000000000000000000003C
S11301E0000000000000000000000000DD0200002C
S11301F0DD020000DD020000DD020000000000005E
S1130200000000000000000000000000DD0200000B
S1130210DD020000DD020000DD020000DD0200005E
S1130220DD020000DD020000DD020000DD0200004E
S1130230DD020000DD020000DD020000DD0200003E
S113024000000000DD020000DD020000DD0200000D
S1130250DD020000DD020000DD020000DD0200001E
S11302600000000010B5054C237833B9044B13B1DA
S11302700448AFF300800123237010BD0000002068
S113028000000000AC1200000C4B43B10C480D49B7
S113029010B5AFF300800C48036823B910BD0A48B9
S11302A0036833B97047094B002BF7D0BDE8104001
S11302B01847064B002BF5D0184700BF000000007C
S11302C0AC12000004000020AC120000000000008A
S11302D008B5014B984708BD7D05000082B0012395
S11302E00193019B012BFCD002B0704708B51C4B55
S11302F01C4A9A4210D01C4B194A9A420CD2013B18
S11303009B1A23F0030304331344164951F8040BD6
S113031042F8040B9A42F9D1144B154A9A420AD274
S1130320013B9B1A23F0030304331344002142F8D6
S1130330041B9342FBD10F4B0F4A22F07F029A60B9
S1130340D3F8882042F47002C3F88820BFF34F8F9B
S1130350BFF36F8F094B9847094B9847FEE700BFDF
S113036000000020AC120000000000209C000020CF
S11303700000002000ED00E000000000DD1000009F
S1130380C110000008B540202E4BC3F890002E4A3F
S1130390536943F4806353612C4B20225A6002F169
S11303A0804202F500329A622949996293F8452005
S11303B002F0FB0283F8452093F8452002F0FE0288
S11303C042F0010283F8452093F8322002F00F0234
S11303D083F8322058601F4A9A62996293F8462043
S11303E002F0FB0283F8462093F8462002F0FE0256
S11303F042F0010283F8462093F8332002F0F00221
S113040083F8332080225A6002F1804202F50032E0
S11304109A62996293F8472002F0FB0283F847201E
S113042093F8472002F0FE0242F0010283F84720CD
S113043093F8332002F00F0283F83320064B9847D9
S113044008BD00BF001C00400008004000800041BF
S1130450000002C04000024085060000024A136901
S113046043F04003136170470008004008B5034B94
S1130470984703490348044B984708BD5D040000AE
S11304800040004140000020C5060000164B93F8D0
S1130490572002F0FB0283F8572093F8572002F00C
S11304A0FE0242F0010283F8572093F83B2002F049
S11304B00F0242F0300283F83B2093F8562002F0FA
S11304C0FB0283F8562093F8562002F0FE0242F015
S11304D0010283F8562093F83B2002F0F00242F028
S11304E0030283F83B20704700800041064B402202
S11304F0C3F80C214322C3F88C20044A136A43F046
S113050002031362704700BF001C00400008004053
S113051008B5044B984704490448054B9847054BD4
S1130520984708BDED040000000400436400002067
S1130530E10700008D040000024A536943F480730C
S1130540536170470008004008B5064B984748229D
S113055005490120054B98470548064B0360064BA7
S1130560984708BD3905000024110000050A000061
S11305705C000020002000405510000008B50B4B23
S113058098470B4B98470B4B98470B4A536943F4D6
S113059000735361094B98470246094909480A4BBD
S11305A098470A4B98470A4B984708BD6D0A0000C4
S11305B0850300006D04000000080040650E000083
S11305C00024004070000020C9090000110500004B
S11305D04905000070B582B005460E46094C01A9D4
S11305E02046094B984710212046084B984720463F
S11305F0074B9847324629460198064B984702B064
S113060070BD00BF640000209508000029080000A8
S11306106D080000C1080000EFF31083036072B698
S1130620BFF35F8F7047BFF35F8F036883F3108856
S11306307047000070B5124BD96888421DD0012262
S1130640032500241E46884287BF0132D4B202F13A
S1130650FF32D5B2A54212D32B195B10DAB2022AAB
S11306600DD8134606EBC20149688142EBD1044A16
S113067052F833301BB1984770BD0123F7E770BDC2
S11306801C00002008B5074B4FF0FF3159600022D1
S11306901A60D9609A6059611A610348034B9847FC
S11306A008BD00BF1C00002035060000810B0000BF
S11306B008B5436903B1984708BD08B5836903B118
S11306C0984708BD38B50D46044690B1081C18BFBC
S11306D0012038220849094B984729462046084BEF
S11306E09847034618B9074A2260074A62601846C9
S11306F038BD0020EDE700BF40110000050A0000EE
S1130700E50C0000B1060000BB0600002DE9F8432B
S11307100F469046044620B329B3101C18BF01208D
S1130720B6221249124B9847043C124D2046A84762
S11307300028FBD0013F0026DFF840900D4D17F84C
S1130740011F2046C8472046A8470028FBD0013691
S1130750B6B2B045F3D82046074B98473046BDE8BB
S1130760F8830020DCE70020DAE700BF581100001E
S1130770050A0000371000004B100000291000008B
S11307802DE9F8430F4690460446E0B1E9B1101C48
S113079018BF01209C220E490E4B9847013F0026AA
S11307A0043C0D4DDFF834902046A8470028FBD0C8
S11307B02046C84707F8010F0136B6B2B045F3D852
S11307C03046BDE8F8830020E4E70020E2E700BFFC
S11307D058110000050A0000411000002F1000000D
S11307E038B50D46044690B1081C18BF01203522C7
S11307F00849094B984729462046084B9847034621
S113080018B9074AA260074A6260184638BD00203A
S1130810EDE700BF58110000050A0000C50F0000F5
S1130820810700000D07000038B50D46044651222B
S11308300A49003018BF0120094B98472046094B4C
S1130840984720B129462046074B984738BD05F004
S11308507F012046044B984738BD00BF5811000063
S1130860050A00000F1000001910000010B504461E
S11308705F220549003018BF0120044B98472046E9
S1130880034B984710BD00BF58110000050A000033
S1130890F90F000038B50D46044650B1081C18BFC6
S11308A0012073220449054B984704342C6000202E
S11308B038BD0020F5E700BF58110000050A00000C
S11308C070B50D461646044660B1081C18BF0120D9
S11308D03D220549054B9847636832462946204620
S11308E0984770BD0020F3E774110000050A00006A
S11308F0F8B5844607682FB18D683C460026C2F1DE
S1130900010E0BE00E4B9847F8BD7344A0680344F6
S1130910AB420AD22368264653B11C46636893420D
S1130920F3D8A06803449B1AF2E7A74204D03446E4
S11309302046044B9847F8BD6046014B9847F8BDE4
S11309402D0A0000590A00002DE9F047446907699F
S113095001370761037E13F0010F13D1037E13F0F7
S1130960020F0FD154B36368FB1AA268934207D3F2
S1130970064600F11408DFF84890DFF848A012E0BA
S1130980BDE8F087037E43F002030376BDE8F087F9
S11309907569E3682046984785B12C466B68FB1A55
S11309A0AA6893420AD34046C847237C012BEFD15F
S11309B067603A4621464046D047E9E7BDE8F087FC
S11309C0610A0000F108000038B50D46044678B10C
S11309D0081C18BF01203B220649074B98472946AB
S11309E02046064B984700202061054B236038BD04
S11309F00020F0E788110000050A0000FD0D00004A
S1130A004909000000B900BE704703684BB18B422E
S1130A1009D01B681BB19942FBD10120704700200B
S1130A2070470020704701207047000038B5044625
S1130A300D46064B984780F0010039220449C0B2A4
S1130A40044B984723682B60256038BD0B0A0000CF
S1130A50A0110000050A000003680B6001607047E4
S1130A6003680BB11A6802601846704708B5084A53
S1130A7013889BB21380074B9847074B9847074B43
S1130A809847074B984740F6FF70064B984708BDB8
S1130A9000400041850D0000990D0000AD0C0000E0
S1130AA0B50D0000890C0000F0B583B02F4B5A69D6
S1130AB00192019A5A612E4B1868F0222D49003098
S1130AC018BF01202C4B9847019B002B4BD04FF0B3
S1130AD0FF372A4D3BE0B64605EBCE0EDEF8047038
S1130AE0B7F1FF3F03D0224B1B6838469847019B60
S1130AF006FA04F423EA04040194019A92FAA2F394
S1130B00B3FA83F3002A08BF4FF0FF3318D01C4612
S1130B10062BE0D006223346032000219442C7BFAF
S1130B200133D9B203F1FF33D8B28142D8D8431884
S1130B30C3F347039E4615F83320A242EED1CBE718
S1130B400A4B5A690192019A5A61019B5BB1019A5D
S1130B5092FAA2F3B3FA83F3002A0CBF4FF0FF33E7
S1130B600126D4D1ECE703B0F0BD00BF002800405B
S1130B7034000020D8110000050A0000C011000054
S1130B80354B5B6813F0010F1FD1334A536813F0E0
S1130B90030FFBD1304B1B7813F0020F0DD02E4AFC
S1130BA0137803F0FD031370536813F0030FFBD1A4
S1130BB0294A536813F0020FFBD10122264B1A7005
S1130BC01A46536813F0030FFBD1234A536813F0FA
S1130BD0010FFBD1204A137803F0EF03137053681D
S1130BE013F0030FFBD11C4B00225A709A609A61D8
S1130BF01A635A63DA611A621A7842F002021A70AE
S1130C001A46536813F0030FFBD1144B4FF4003210
S1130C10C3F88020BFF34F8FBFF36F8FC3F88021D9
S1130C201A604FF48022C3F88020BFF34F8FBFF3C4
S1130C306F8FC3F880211A604FF40022C3F880201C
S1130C40BFF34F8FBFF36F8FC3F880211A60044B3B
S1130C5018600020704700BF0028004000E100E059
S1130C603400002008B5014B984708BDA90A0000CC
S1130C7008B5014B984708BDA90A000008B5014B07
S1130C80984708BDA90A000010F0010F08D0054AD2
S1130C90054B1A62194643F6FD724B681342FCD1A8
S1130CA0704700BF01010100001C00400122014BFC
S1130CB05A7170470008004008B503691A8A12F097
S1130CC0010F05D001221A82036853B1984708BD69
S1130CD01A8A92B22AB140F25E221A82436803B1A0
S1130CE0984708BD38B50C46054650B316488142AE
S1130CF014BF002001204B221449154B98472C6146
S1130D00238823F0C0039B049B0C2380114B1D609C
S1130D10114B4FF00051C3F88010BFF34F8FBFF356
S1130D206F8F4FF08042C3F88020BFF34F8FBFF323
S1130D306F8FC3F88011C3F8802119601A600020F6
S1130D4038BD0020D7E700BF00400041F01100008B
S1130D50050A00003800002000E100E008B5024B5D
S1130D601868024B984708BD38000020B90C0000F1
S1130D7008B5024B1868024B984708BD380000209C
S1130D80B90C0000034BDA6902F47C52DA610122E7
S1130D901A74704700140040044A054B9A611A46BD
S1130DA0136913F0020FFBD0704700BF062600033F
S1130DB0001000407047000000B583B00D4B9B78D5
S1130DC0DBB20193019B13F0020F06D00A4B1B68A0
S1130DD01BB1084A5068984709E0019B13F0010FC2
S1130DE005D0054B5B6813B1024A5068984703B0BD
S1130DF05DF804FB000002418C00002038B50C466D
S1130E00054630221449003018BF0120134B98477F
S1130E10EC600123238048F2030223691342FCD1CE
S1130E20EB681A6912F0010FFBD148F280021A80B4
S1130E3048F203011A690A42FCD1EA6820231362CA
S1130E40136913F0600FFBD1EB684FF480725A8181
S1130E50034B1D60002038BD10120000050A00007D
S1130E603C0000200020704710B5084B1C68E36864
S1130E709B8913F4807F07D023680BB120469847E1
S1130E80E3684FF480729A8110BD00BF3C000020DB
S1130E9070B487B006466C460C4D0FCD0FC495E870
S1130EA0030084E80300009BB3420CD032460120C7
S1130EB05DF82030934207D001300628F8D1002095
S1130EC007B070BC70470020C0B2F9E728120000D8
S1130ED010B504461D4B9847052808D040F2B77258
S1130EE01B4900201B4B98476FF00C0010BDE369B1
S1130EF013F0010F19D1E36913F0030FFBD1236839
S1130F0013F0020F0BD0236823F002032360E3697C
S1130F1013F0030FFBD1E36913F0020FFBD111238C
S1130F202360E36913F0030FFBD1E36913F0010FAE
S1130F30FBD1094B2360E36913F0030FFBD14FF49A
S1130F40A063636020236362002010BD910E000043
S1130F5058120000050A00001000200070B582B08D
S1130F6004460E46E36913F0030FFBD12568C5F36D
S1130F70400501A8114B9847236823F0020323601E
S1130F80E36913F0030FFBD1636A23F4FF6323F0D7
S1130F90060340F2FE7101EA46011943616201A8A9
S1130FA0074B98473DB1236843F002032360E3698C
S1130FB013F0030FFBD1002002B070BD190600002E
S1130FC02706000038B50C46054640F2A6620749DC
S1130FD0003018BF0120064B98472046054B984720
S1130FE0034600B92C60184638BD00BF58120000F3
S1130FF0050A0000D10E00000268136843F00203E2
S11310001360D36913F0030FFBD10020704703680A
S1131010586AC0F3C030704708B50068014B984760
S113102008BD00BF5D0F0000036899627047036844
S1131030986AC0B270470368187EC0F38000704796
S11310400368187EC0F380007047036804221A7690
S11310500020704710B5044630B30068003018BF54
S1131060012050221449154B984723689A6812F0BE
S11310700E0FFBD11A78D20918D19A6812F00E0F0C
S1131080FBD11A7812F0020F13D11A7802F0FB0286
S11310901A709A6812F00E0FFBD12268537803F08D
S11310A0F0035370002010BD0020DAE76FF0100049
S11310B010BD6FF0100010BD74120000050A00008E
S11310C000B585B0034B98470A25034C294601A86F
S11310D0A047FBE7D1020000D505000070B50D4E16
S11310E00D4CA41BA4100025A54209D10B4E0C4C99
S11310F000F0CCF8A41BA4100025A54205D170BDB6
S113110056F8253098470135EEE756F825309847CC
S11311100135F2E7981200009812000098120000BE
S11311209C1200002E2E2F68616C2F696E636C7503
S113113064652F68616C5F7764742E68000000003A
S11311402E2E2F68616C2F7372632F68616C5F663B
S11311506C6173682E6300002E2E2F68616C2F73F0
S113116072632F68616C5F6932635F735F73796E5A
S1131170632E63002E2E2F68616C2F7372632F68A9
S1131180616C5F696F2E63002E2E2F68616C2F7364
S113119072632F68616C5F74696D65722E63000001
S11311A02E2E2F68616C2F7574696C732F737263A4
S11311B02F7574696C735F6C6973742E630000001F
S11311C00500000005000000060000000600000005
S11311D007000000070000002E2E2F68706C2F659A
S11311E069632F68706C5F6569632E63000000009B
S11311F02E2E2F68706C2F6E766D6374726C2F6850
S1131200706C5F6E766D6374726C2E630000000008
S11312102E2E2F68706C2F7274632F68706C5F723F
S113122074632E630000000000300040003400406E
S1131230002001410040014100000043000400433C
S1131240000000000000000000000000000000009A
S113125000000000000000002E2E2F68706C2F7319
S11312606572636F6D2F68706C5F736572636F6D09
S11312702E6300002E2E2F68706C2F7764742F68F5
S1131280706C5F7764742E6300000000F8B500BFD3
S1131290F8BC08BC9E46704789020000F8B500BF40
S10F12A0F8BC08BC9E46704765020000C4
S9030000FC
