S013000066625F61746D656C5F66772E737265639B
S113000038C1002005030000F5020000E5020000ED
S1130010F5020000F5020000F502000000000000F7
S1130020000000000000000000000000F5020000D5
S1130030F502000000000000F5020000F5020000D7
S1130040F5020000F5020000F5020000F5020000D0
S1130050F5020000F5020000F5020000F5020000C0
S1130060F5020000F5020000F50200006D13000027
S1130070F5020000F5020000F5020000F5020000A0
S1130080F5020000F5020000F5020000F502000090
S1130090F5020000F5020000F5020000F502000080
S11300A0F5020000F5020000F5020000F502000070
S11300B0F5020000F110000005110000F502000037
S11300C0F5020000F5020000F5020000F502000050
S11300D0F5020000F5020000F5020000F502000040
S11300E0F5020000F502000000000000000000001E
S11300F000000000BD120000F5020000F50200003F
S1130100F5020000F5020000F5020000F50200000F
S1130110F5020000F5020000F5020000F5020000FF
S1130120F5020000F5020000F5020000F5020000EF
S1130130F5020000F5020000F5020000F5020000DF
S1130140F5020000F5020000F5020000F5020000CF
S1130150F5020000F50200000000000000000000AD
S1130160000000000000000000000000000000008B
S1130170000000000000000000000000000000007B
S1130180F5020000F5020000F5020000F50200008F
S113019000000000F5020000F5020000F502000076
S11301A0F5020000F5020000F5020000F50200006F
S11301B0F5020000F5020000F5020000F50200005F
S11301C0F5020000F5020000F5020000F50200004F
S11301D0F502000000000000000000000000000024
S11301E0000000000000000000000000F502000014
S11301F0F5020000F5020000F50200000000000016
S1130200000000000000000000000000F5020000F3
S1130210F5020000F5020000F5020000F5020000FE
S1130220F5020000F5020000F5020000F5020000EE
S1130230F5020000F5020000F5020000F5020000DE
S113024000000000F5020000F5020000F5020000C5
S1130250F5020000F5020000F5020000F5020000BE
S11302600000000010B5054C237833B9044B13B1DA
S11302700448AFF300800123237010BD6400002004
S1130280000000003C2500000C4B43B10C480D4914
S113029010B5AFF300800C48036823B910BD0A48B9
S11302A0036833B97047094B002BF7D0BDE8104001
S11302B01847064B002BF5D0184700BF000000007C
S11302C03C250000680000203C25000000000000E0
S11302D008B5024B9847024B984708BD85070000B4
S11302E0F107000082B001230193019B012BFCD094
S11302F002B0704782B001230193019B012BFCD013
S113030002B0704708B51C4B1C4A9A4210D01C4BD3
S1130310194A9A420CD2013B9B1A23F0030304337B
S11303201344164951F8040B42F8040B9A42F9D1CC
S1130330144B154A9A420AD2013B9B1A23F0030339
S113034004331344002142F8041B9342FBD10F4BA6
S11303500F4A22F07F029A60D3F8882042F4700298
S1130360C3F88820BFF34F8FBFF36F8F094B9847B3
S1130370094B9847FEE700BF000000203C25000021
S113038064000020340100206400002000ED00E03F
S113039000000000BD210000ED170000024A1369AF
S11303A043F04003136170470008004008B5034B55
S11303B0984703490348044B984708BD9D03000030
S11303C000400041A4000020DD09000030B45A4B75
S11303D04FF40065C3F88450584AC3F8A82058481D
S11303E0C3F8A80093F8CB2002F0FB0283F8CB20DB
S11303F093F8CB2002F0FE0242F0010283F8CB20F6
S113040093F8B52002F00F0242F0700283F8B52091
S11304104FF480729A604B4999624FF040449C6259
S11304205A6193F8482002F0FB0283F8482093F8BD
S1130430482002F0FE0242F0010283F8482093F8BB
S1130440342002F0F00242F0070283F834204FF423
S113045000729A6001F5807199629C625A6193F806
S1130460492002F0FB0283F8492093F8492002F066
S1130470FE0242F0010283F8492093F8342002F08E
S11304800F0242F0700283F834204FF480619960C7
S11304902D4A9A629C62596193F84A2002F0FB0249
S11304A083F84A2093F84A2002F0FE0242F0010247
S11304B083F84A2093F8352002F0F00242F0070254
S11304C083F835209D60214A9A629C625D6193F8AD
S11304D04B2002F0FB0283F84B2093F84B2002F0F0
S11304E0FE0242F0010283F84B2093F8352002F01B
S11304F00F0242F0700283F83520C3F88410144AC6
S1130500C3F8A820C3F8A80093F8CA2002F0FB029D
S113051083F8CA2093F8CA2002F0FE0242F00102D6
S113052083F8CA2093F8B52002F0F00242F00702E3
S113053083F8B52030BC70470080004100080240B9
S1130540000002C000010040000400400008004018
S113055000040240064B1A6942F400521A611A69F7
S113056042F400121A61DA6942F40052DA61704707
S11305700008004008B5044B984704490448054B5B
S11305809847054B984708BD5505000000340042C4
S1130590DC000020390C0000CD030000284B1022A1
S11305A05A619A6002F180429A624FF04041996226
S11305B093F8442002F0FE0242F0010283F8442042
S11305C093F8322002F0F00242F0030283F8322062
S11305D020225A619A6002F180429A62996293F8E9
S11305E0452002F0FE0242F0010283F8452093F810
S11305F0322002F00F0242F0300283F8322040220F
S11306005A6002F1804202F500329A620D4A9A62FF
S113061093F8462002F0FB0283F8462093F8462024
S113062002F0FE0242F0010283F8462093F83320E0
S113063002F0F00242F0030283F83320704700BF57
S113064000800041000002C0064B4022C3F89C20F9
S11306504322C3F88C20044A536943F48053536102
S1130660704700BF001C00400008004008B5044B60
S1130670984704490448054B9847054B984708BDDB
S11306804906000000300040C4000020C10C0000F6
S11306909D050000164B93F8512002F0FB0283F8ED
S11306A0512093F8512002F0FE0242F0010283F837
S11306B0512093F8382002F00F0242F0300283F800
S11306C0382093F8502002F0FB0283F8502093F86E
S11306D0502002F0FE0242F0010283F8502093F809
S11306E0382002F0F00242F0030283F83820704709
S11306F000800041064B4022C3F8E0204322C3F8A7
S11307008C20044A936943F480639361704700BF6B
S1130710001C00400008004008B5044B98470449F9
S11307200448054B9847054B984708BDF50600005B
S113073000400141E0000020F90A00009506000095
S1130740024A536943F480735361704700080040C0
S113075008B5064B9847482205490120054B9847A0
S11307600548064B0360064B984708BD4107000047
S1130770F4220000310F0000C000002000200040DF
S11307808117000008B50B4B98470B4B98470B4A51
S1130790536943F400735361094B9847024609496E
S11307A009480A4B98470A4B98470A4B98470A4B03
S11307B0984708BDE10F0000AD03000000080040A9
S11307C06913000000240040EC000020F50E000036
S11307D06D060000190700005107000008B5024B20
S11307E09847024B984708BD75050000E11F0000BB
S11307F01E4B012199601E4A9A624FF040429A6250
S1130800996193F8401001F0FB0183F84010022134
S11308109960184898629A62596193F8411001F0FE
S1130820FB0183F841100821C3F8841001F18041D1
S113083001F50031C3F8A8100F49C3F8A81093F8C4
S1130840C31001F0FB0183F8C3100421C3F888101E
S11308500230C3F8A800C3F8A820C3F8941093F892
S1130860C22002F0FB0283F8C220704700800041DE
S11308700100004002000040000002C070B582B0D8
S113088005460E46094B01229A6102225A61084C20
S113089001A92046074B98472046074B9847324604
S11308A029460198054B984702B070BD008000416D
S11308B0C4000020F10D0000110D0000D90B000050
S11308C070B582B005460E46094B01225A610222D8
S11308D09A61084C01A92046074B98472046074BCC
S11308E09847324629460198054B984702B070BD97
S11308F000800041C4000020F10D0000110D000033
S1130900090C000070B582B005460E46094C01A9D9
S11309102046094B984710212046084B984720460B
S1130920074B9847324629460198064B984702B030
S113093070BD00BFE0000020AD0B0000410B0000C3
S1130940850B0000090C000070B582B005460E4608
S1130950094C01A92046094B984710212046084B11
S113096098472046074B9847324629460198064B3C
S1130970984702B070BD00BFE0000020AD0B00003E
S1130980410B0000850B0000D90B0000EFF310832E
S1130990036072B6BFF35F8F7047BFF35F8F036866
S11309A083F310887047000010B5044B1C68044B97
S11309B0984701462046034B984710BD800000200D
S11309C0BD0F0000D90F000008B5436903B1984773
S11309D008BD08B5836903B1984708BD38B50D460D
S11309E0044690B1081C18BF012038220849094B5D
S11309F0984729462046084B9847034618B9074AA2
S1130A002260074A6260184638BD0020EDE700BF47
S1130A1010230000310F000079100000C909000004
S1130A20D30900002DE9F8430F469046044620B34D
S1130A3029B3101C18BF0120B6221249124B984743
S1130A40043C124D2046A8470028FBD0013F002655
S1130A50DFF840900D4D17F8011F2046C847204687
S1130A60A8470028FBD00136B6B2B045F3D82046DB
S1130A70074B98473046BDE8F8830020DCE70020A8
S1130A80DAE700BF28230000310F00005F150000E3
S1130A9073150000511500002DE9F8430F469046E8
S1130AA00446E0B1E9B1101C18BF01209C220E4994
S1130AB00E4B9847013F0026043C0D4DDFF834905F
S1130AC02046A8470028FBD02046C84707F8010F56
S1130AD00136B6B2B045F3D83046BDE8F8830020FD
S1130AE0E4E70020E2E700BF28230000310F000004
S1130AF0691500005715000038B50D46044690B13D
S1130B00081C18BF012035220849094B984729467B
S1130B102046084B9847034618B9074AA260074A7B
S1130B206260184638BD0020EDE700BF28230000AE
S1130B30310F0000ED140000990A0000250A00009E
S1130B4038B50D46044651220A49003018BF012029
S1130B50094B98472046094B984720B1294620461F
S1130B60074B984738BD05F07F012046044B984752
S1130B7038BD00BF28230000310F000037150000E6
S1130B804115000010B504465F220549003018BF26
S1130B900120044B98472046034B984710BD00BFE3
S1130BA028230000310F00002115000038B50D4640
S1130BB0044650B1081C18BF012073220449054B98
S1130BC0984704342C60002038BD0020F5E700BFAE
S1130BD028230000310F000070B50D461646044668
S1130BE060B1081C18BF012034220549054B984701
S1130BF02368324629462046984770BD0020F3E713
S1130C0044230000310F000070B50D46164604461B
S1130C1060B1081C18BF01203D220549054B9847C7
S1130C206368324629462046984770BD0020F3E7A2
S1130C3044230000310F000038B50C46054658B176
S1130C40081C18BF012031220449054B984721464E
S1130C502846044B984738BD0020F4E75823000089
S1130C60310F0000A111000010B504463F220549D0
S1130C70003018BF0120044B98472046034B984787
S1130C8010BD00BF58230000310F0000D91100002F
S1130C9038B50C46054658B1081C18BF01204D2232
S1130CA00449054B984721462846044B984738BDCC
S1130CB00020F4E758230000310F0000E511000084
S1130CC038B50D460446B8B1081C18BF01204022AF
S1130CD00A490B4B9847204640F8045F2946094BC4
S1130CE09847002807DB4FF40043A382064B236197
S1130CF0064BE360002038BD0020E8E774230000C1
S1130D00310F00007D150000B50D0000790D0000C5
S1130D1010B5044657220549003018BF0120044B82
S1130D209847201D034B984710BD00BF7423000053
S1130D30310F00007116000030B585B00C46054631
S1130D4090B1081C18BF0120B3220849084B9847EA
S1130D502368019363680293A368039301A9281D80
S1130D60044B984705B030BD0020EDE77423000024
S1130D70310F0000A116000070B584B00E46154670
S1130D800446A3220849003018BF0120074B9847A6
S1130D90002302930196039501A9A4F10C00044BCE
S1130DA0984704B070BD00BF74230000310F0000E9
S1130DB0390D000070B584B00E46154604468722EE
S1130DC00849003018BF0120074B984702960023BA
S1130DD00193039501A9A4F10C00044B984704B0B6
S1130DE070BD00BF74230000310F0000390D0000F6
S1130DF038B50D46044650B1081C18BF0120BD2269
S1130E000449054B98470C342C60002038BD002061
S1130E10F5E700BF74230000310F0000F8B58446E5
S1130E2007682FB18D683C460026C2F1010E0BE025
S1130E300E4B9847F8BD7344A0680344AB420AD2F2
S1130E402368264653B11C4663689342F3D8A068CE
S1130E5003449B1AF2E7A74204D034462046044BCD
S1130E609847F8BD6046014B9847F8BD590F0000FC
S1130E70850F00002DE9F0474469076901370761D0
S1130E80037E13F0010F13D1037E13F0020F0FD171
S1130E9054B36368FB1AA268934207D3064600F171
S1130EA01408DFF84890DFF848A012E0BDE8F087A6
S1130EB0037E43F002030376BDE8F0877569E368B7
S1130EC02046984785B12C466B68FB1AAA68934262
S1130ED00AD34046C847237C012BEFD167603A46CA
S1130EE021464046D047E9E7BDE8F0878D0F000072
S1130EF01D0E000038B50D46044678B1081C18BF15
S1130F0001203B220649074B984729462046064BB9
S1130F10984700202061054B236038BD0020F0E78E
S1130F2090230000310F000001130000750E000033
S1130F3000B900BE704703684BB18B4209D01B68EF
S1130F401BB19942FBD1012070470020704700205B
S1130F50704701207047000038B504460D46064B23
S1130F60984780F0010039220449C0B2044B9847E5
S1130F7023682B60256038BD370F0000A8230000CC
S1130F80310F000003680B600160704703680BB108
S1130F901A680260184670470346064A126822B16E
S1130FA0044A10680344136070470349014A1160FE
S1130FB0F6E700BF8400002038C10020C0EB001019
S1130FC0C30002330348A0FB03235B08642000FB37
S1130FD003F07047ABAAAAAA0139FDD8704700BF35
S1130FE008B5084A13889BB21380074B9847074BF0
S1130FF09847074B9847074B984740F6FF70064BB6
S1131000984708BD00400041191100002D1100004F
S113101041100000491100001D10000010F0010FE4
S113102008D0054A054B1A62194643F6FD724B680F
S11310301342FCD1704700BF08010100001C0040AE
S11310400122014B5A7170470008004008B503693A
S11310501A8A12F0010F05D001221A82036853B1D3
S1131060984708BD1A8A92B22AB140F25E221A82C7
S1131070436803B1984708BD38B50C46054650B3DC
S11310801648814214BF002001204B221449154BFD
S113109098472C61238823F0C0039B049B0C238076
S11310A0114B1D60114B4FF00051C3F88010BFF37A
S11310B04F8FBFF36F8F4FF08042C3F88020BFF390
S11310C04F8FBFF36F8FC3F88011C3F8802119606D
S11310D01A60002038BD0020D7E700BF004000415F
S11310E0C8230000310F00008800002000E100E068
S11310F008B5024B1868024B984708BD88000020C9
S11311004D10000008B5024B1868024B984708BD03
S1131110880000204D100000034BDA6902F47C5271
S1131120DA6101221A74704700140040044A054B26
S11311309A611A46136913F0020FFBD0704700BF7F
S1131140062600030010004040F23F12134B9A643D
S11311501A46136D13F0060FFBD1104B3022DA64DC
S1131160022283F844201A46136D13F0020FFBD1B8
S11311700A4B5A6D12F0010F03D15A6D12F0020F8F
S1131180F7D0064A92F8443043F0800382F84430A2
S1131190136D13F0060FFBD1704700BF0010004021
S11311A038B50C46054680B1081C18BF0120402202
S11311B00749084B98472C6001232360112363607F
S11311C04FF40073A360002038BD0020EFE700BF98
S11311D0E8230000310F0000036802221A60002097
S11311E07047000070B505460C4603680A7812F093
S11311F0200F1CBF8A681A630A7812F0100F05D0FA
S1131200596B21F0FF0122790A435A63227812F0C4
S1131210400F06D05A6B22F47F02617942EA014200
S11312205A6322689A63237813F0800F0CD12B68D9
S11312301F4A1A602A68D36913F4806FFBD04FF4F5
S11312408063D361002070BD296813F0200F1ABF9A
S1131250A26802F180664FF080668B6B2369ABB1A4
S1131260012082221349144B984723699BB1E068FB
S113127038B1721E184413F8011B02F8011F83428F
S1131280F9D1BFF34F8FBFF36F8FD0E760690030A0
S113129018BF0120E5E76369E1680029F1D0013B4B
S11312A0314416F8012B03F8012FB142F9D1E8E7D4
S11312B002000001E8230000310F000000B583B0F4
S11312C00D4B9B78DBB20193019B13F0020F06D008
S11312D00A4B1B681BB1084A5068984709E0019BF8
S11312E013F0010F05D0054B5B6813B1024A506837
S11312F0984703B05DF804FB000002410801002098
S113130038B50C46054630221449003018BF012078
S1131310134B9847EC600123238048F203022369AE
S11313201342FCD1EB681A6912F0010FFBD148F2A9
S113133080021A8048F203011A690A42FCD1EA6861
S113134020231362136913F0600FFBD1EB684FF491
S113135080725A81034B1D60002038BD00240000B8
S1131360310F00008C0000200020704710B5084B9E
S11313701C68E3689B8913F4807F07D023680BB152
S113138020469847E3684FF480729A8110BD00BFED
S11313908C00002070B487B006466C460C4D0FCD0F
S11313A00FC495E8030084E80300009BB3420CD00B
S11313B0324601205DF82030934207D001300628E0
S11313C0F8D1002007B070BC70470020C0B2F9E724
S11313D018240000C36913F0010F09D1036843F016
S11313E002030360C36913F0030FFBD100207047AD
S11313F06FF003007047000010B504461D4B98477A
S1131400032808D040F2B7721B4900201B4B9847B1
S11314106FF00C0010BDE36913F0010F19D1E369FB
S113142013F0030FFBD1236813F0020F0BD02368D2
S113143023F002032360E36913F0030FFBD1E36994
S113144013F0020FFBD111232360E36913F0030FA0
S1131450FBD1E36913F0010FFBD1094B2360E3696E
S113146013F0030FFBD14FF4A06363602023636286
S1131470002010BD9513000048240000310F000027
S11314801000200070B582B004460E46E36913F0E4
S1131490030FFBD12568C5F3400501A8114B9847FC
S11314A0236823F002032360E36913F0030FFBD1E5
S11314B0636A23F4FF6323F0060340F2FE7101EA3A
S11314C046011943616201A8074B98473DB123685F
S11314D043F002032360E36913F0030FFBD1002000
S11314E002B070BD8D0900009B09000038B50C46A0
S11314F0054640F2A6620749003018BF0120064B9A
S113150098472046054B9847034600B92C60184677
S113151038BD00BF48240000310F0000F91300005B
S11315200268136843F002031360D36913F0030FD6
S1131530FBD1002070470368586AC0F3C03070477D
S113154008B50068014B984708BD00BF851400002A
S11315500368996270470368986AC0B27047036869
S1131560187EC0F3800070470368187EC0F38000C3
S11315707047036804221A760020704738B5054680
S11315800C460846364B984760B1002D55D040F6BE
S11315903C123449201C18BF0120334B98476FF08C
S11315A00C0038BD002D51D140F63C122D490020CD
S11315B02D4B9847E36913F0010F19D1E36913F038
S11315C0030FFBD1236813F0020F0BD0236823F021
S11315D002032360E36913F0030FFBD1E36913F003
S11315E0020FFBD10D232360E36913F0030FFBD13A
S11315F0E36913F0010FFBD12C6040F60612194980
S1131600201C18BF0120184B9847184B2360E3692E
S113161013F0030FFBD14FF400336360E36913F05D
S1131620170FFBD10E232373002084F8300001230D
S11316302B7140F2FF13EB8038BD40F63C12094990
S11316400020094B98476FF00C0038BD40F63C125F
S11316500449201C18BF0120034B9847AAE700BF88
S11316609513000048240000310F00000C002040B6
S113167010B5044660B10068003018BF012040F680
S11316809B120449044B98472068044B984710BDAB
S11316900020F4E748240000310F0000D5130000B7
S11316A02DE9F84381460E460468D1F800804D6860
S11316B00779A8B1201C18BF01204FF42A622E49D3
S11316C02E4B9847E36913F0070F34D1E06910F00B
S11316D00300FBD1236813F0020F30D0024608E068
S11316E00020EAE7013213F0800F12D1B36883427D
S11316F01ED9237EDBB213F0040F24D0A16A002D7F
S1131700F0D02970012F91BF0135090A69700235A3
S1131710E8E74FF6FF736383802323766FF01200AC
S1131720237E13F0030FFBD003232376BDE8F88355
S11317309342DED8F4E76FF00300BDE8F8836FF05E
S11317401300BDE8F8839042CDD813F0010FCAD03E
S1131750B9F80610B8F1000F0BD098F80010012F5B
S113176091BF08F1010898F801E041EA0E2108F15F
S113177002080130A162B6E748240000310F0000DE
S113178010B5044630B30068003018BF0120502261
S11317901449154B984723689A6812F00E0FFBD131
S11317A01A78D20918D19A6812F00E0FFBD11A7860
S11317B012F0020F13D11A7802F0FB021A709A6821
S11317C012F00E0FFBD12268537803F0F00353702C
S11317D0002010BD0020DAE76FF0100010BD6FF09C
S11317E0100010BD64240000310F00002DE9F84FF3
S11317F0984B9847D1E00020974B984711E19749BF
S1131800A320974CA047F021B120A0479F20954CDE
S1131810A0479F20A047944B984200F01681934D17
S1131820A8470021B1208E4CA04791498B20A047A6
S1131830904E3146A320A0478F49BB20A047A8471C
S11318400021B120A0478D498B20A0473146A32019
S1131850A0470121BB20A047A8470021B120A047F1
S113186087498B20A0473146A320A0478549BB2048
S1131870A047A8470021B120A04783498B20A04757
S11318803146A320A0470221BB20A047A84700213E
S1131890B120A0477D498B20A0473146A320A04713
S11318A00121BB20A047C820794B9847A8470021B5
S11318B0B120A04777498B20A0476849A320A047BF
S11318C09F20684CA0479F20A04738B93226704D0E
S11318D03046A8479F20A0470028F9D0634B98477B
S11318E00021B1205E4CA04767498B20A047614985
S11318F0A320A0470121BB20A0475FEA98083DD060
S11319005646C244DFF864914FF000083346F2783B
S113191001369C78240444EA02641A7814435B7800
S113192044EA0324C8474146B1204D4DA8473946EF
S11319308B20A847DFF824B15946A320A8472146A5
S1131940BB20A847C8474146B120A84752498B202D
S1131950A8475946A320A8479F20424CA0479F2050
S1131960A04740B94FF0010B494D5846A8479F2066
S1131970A0470028F9D00437B245C7D13B4B98475C
S11319800021B120364CA0473D498B20A04739495E
S1131990A320A0473B49BB20A047404C122120462E
S11319A03F4B98473F4B98472378CC2BF5D163782E
S11319B0BB2BF2D12346A278E478240444EA0264DF
S11319C05A7914431A7944EA02249A7993F80780DD
S11319D04FEA084848EA02685A7A48EA02081A7A3A
S11319E048EA02289A7ADF7A3F0447EA02675A7B78
S11319F017431B7B47EA032704202B4B9847824657
S1131A0043462246014629480068294CA047294BF1
S1131A109847A520134B9847013810F1030F3FF660
S1131A20EAAE8D200F4CA0474FF0A041A9200C4BEB
S1131A3098478D20A04700F07040B0F1704F3FF4FC
S1131A40DEAE0120044B9847D9E60220024B9847AA
S1131A50E5E600BFD102000095210000020000234A
S1131A6099200000F92000000100E6161120000072
S1131A70F0ED00E01200002303005FA0FCED00E0A5
S1131A800CED00E00400FA0504E501400CE501401A
S1131A90A909000000E4014008E401401801002005
S1131AA005090000DD070000052200002C010020CC
S1131AB0D71F00003520000000B589B00023019332
S1131AC002930393059301F0070141F090018DF80F
S1131AD004108DF808200423049307AB069301A98E
S1131AE0034B98479DF81C0009B05DF804FB00BF48
S1131AF0910C0000F8B5074605260025044C324633
S1131B0029463846A04710F0010FF8D1F8BD00BFB0
S1131B10B91A0000F0B587B004461646002A14BF6F
S1131B200622042200230093019302930393049357
S1131B30059301F0070141F010018DF800108DF8B4
S1131B400420052219460B4B9847C0F34000B042CD
S1131B500DD03546084F074E69462046B847052242
S1131B6000212046B047C0F34000A842F4D107B09A
S1131B70F0BD00BFB91A0000910C0000F0B587B0A9
S1131B8006460F460024009401940294059401F043
S1131B90070545F090058DF800504FF000054FF013
S1131BA0020E6EF305158DF801508DF80420042201
S1131BB0039204930122064DA84769463046054B1B
S1131BC09847224639463046A84707B0F0BD00BFC3
S1131BD0151B0000910C000070B586B00568002448
S1131BE0009401940494B0248DF800404FF0000454
S1131BF0012666F305148DF8014008248DF802408F
S1131C000B248DF80440029203930591037A4BB19F
S1131C106B238DF804309DF80030022262F3020336
S1131C208DF8003069462846024B9847002006B0DC
S1131C3070BD00BF910C0000F8B504460F460122A8
S1131C400021084DA8472046074EB0473946204694
S1131C50064B98472046B047002211462046A84725
S1131C60F8BD00BF151B0000F51A0000910C000020
S1131C702DE9F04F89B001921E46036800930023BA
S1131C80029303930793B0238DF8083030238DF823
S1131C90093002238DF80C30049205960691370A18
S1131CA023D08B460C4600254FF4807A019BA3EB8E
S1131CB00109DFF85080CDF814A004EB0903049364
S1131CC0069402A90098C04704F580740135AF4218
S1131CD0F1D12D020BEB0502019B1D4416F0FF030D
S1131CE008D1002009B0BDE8F08F02A90098054B87
S1131CF09847F6E705930495069202A90098014BCC
S1131D009847EEE7391C00002DE9F04387B01546EB
S1131D1006680023009301930293039304930593AD
S1131D2030238DF800304FF00003022262F30513D4
S1131D308DF8013041EA0503C3F30B03002B5ED198
S1131D400C46052200213046314B984710F0010F14
S1131D5003D0022007B0BDE8F08301220021304601
S1131D602C4B984714B9B5F5001F07D2002D3FD06E
S1131D704FF0D809DFF8A480274F26E09DF8003003
S1131D806FF345138DF80030C7238DF8043069468E
S1131D903046224B9847A5F5001530461E4B984710
S1131DA0E4E7C4F30B036BBBB5F5805F2DD302945A
S1131DB020238DF8043069463046C04704F580542A
S1131DC0A5F580553046B84795B1A3B2002BE8D1AC
S1131DD0B5F5803FE5D302948DF80490694630460A
S1131DE0C04704F58034A5F580353046B847EBE7A5
S1131DF0002211463046074B98470020AAE76FF0AF
S1131E000C00A7E76FF00C00A4E76FF00C00A1E74B
S1131E10B91A0000151B0000F51A0000910C00000F
S1131E20F0B589B0046800250195029503950595E0
S1131E30F4238DF80430022343F050028DF805207A
S1131E4005228DF80620EB218DF808108DF8093055
S1131E50012304930DF11F03069329462046174ED0
S1131E60B0478DF81C00352229462046B0478DF82E
S1131E701D00332229462046B0478DF81E009DF8E8
S1131E801D0010F0020F12D10D4F40F002008DF82A
S1131E901D0007AB012229462046B84735222946B2
S1131EA02046B0478DF81D0010F0020FEDD001A9B7
S1131EB02046044B9847002009B0F0BDB91A000031
S1131EC07D1B0000910C000030B587B0056800242C
S1131ED000940194029403940494059410238DF8BF
S1131EE00030FF238DF8043006492846064B9847F6
S1131EF02846064B984769462846054B984720468E
S1131F0007B030BD00340042390C0000690C0000F9
S1131F10910C00002DE9F04182B006461746284A8C
S1131F20284B98473468052200212046264DA847AF
S1131F308DF80400352200212046A8478DF80500BD
S1131F40332200212046A8478DF806003772CFB906
S1131F509DF8050010F0020F2DD00025DFF86C80ED
S1131F60194F20F002008DF8050001AB012229462B
S1131F702046C047352229462046B84710F0020FB4
S1131F80EFD118E09DF8050010F0020F13D10025E1
S1131F90DFF838800C4F40F002008DF8050001ABEB
S1131FA0012229462046C047352229462046B84703
S1131FB010F0020FEFD0304602B0BDE8F08100BF50
S1131FC07C240000D11F0000B91A00007D1B000012
S1131FD001604260704710B544682468A04710BD92
S1131FE010B5064C2046064B98470022214605486A
S1131FF0054B9847054B186010BD00BFDC0000205E
S1132000690C000090000020151F00002C01002026
S113201000B583B0054A92E803008DE80300082167
S11320206846034B984703B05DF804FB9024000016
S11320307D08000030B587B001AC054D0FCD0FC44D
S11320402B682370112101A8024B984707B030BDBB
S1132050982400007D08000000B583B0054A92E88A
S113206003008DE8030008216846034B984703B03A
S11320705DF804FBAC2400007D080000034648B171
S1132080002003F001021044C0B25B08F9D100F053
S1132090010070470020FAE7F0B583B006460C460D
S11320A04D011335EDB20846114B9847E30EC4F3C6
S11320B0C741C4F3C727C4F3C704B0B900228DF8DD
S11320C000208DF801608DF802508DF803408DF8E2
S11320D004708DF805108DF806308DF8072008215E
S11320E06846044B984703B0F0BD43F02003E5E78E
S11320F07D2000007D08000030B585B004AB03F8F6
S1132100090D012118461E4B9847052102A81D4BB5
S113211098479DF8082012F0020F2ED09DF80B105E
S11321209DF80C300C0944EA0314E4B28DF80C4019
S11321309DF80A502B0943EA0113DBB28DF80B30EA
S11321409DF80900010941EA0511C9B28DF80A1088
S1132150120942EA0012D2B28DF809201B0443EAA4
S11321600464144344EA0124074B9847074B9847F7
S1132170074B9847204605B030BD0024F4E700BF64
S11321807D080000C1080000112000003520000077
S11321905920000000B583B0CC238DF80430EE2321
S11321A08DF805308DF80600032101A8024B9847ED
S11321B003B05DF804FB00BF4909000070B50D4E83
S11321C00D4CA41BA4100025A54209D10B4E0C4CA8
S11321D000F0A4F9A41BA4100025A54205D170BDEC
S11321E056F8253098470135EEE756F825309847DC
S11321F00135F2E7282500002825000028250000E5
S11322002C250000024B0146186800F003B800BFFB
S11322100000002070B5CD1C25F0030508350C2DF9
S113222038BF0C25002D064601DBA94203D90C2337
S11322303360002070BD00F05BF8234A1468214627
S113224091B9224C23681BB9304600F041F8206054
S11322502946304600F03CF8431C26D10C23336059
S1132260304600F046F8E4E70B685B1B1AD40B2BEE
S11322700FD90B60CD50CC18304600F03AF804F179
S11322800B00231D20F00700C31A1BD05A42E25052
S113229070BD8C420DBF63684B686360136018BFE8
S11322A00C46E9E70C464968CAE7C41C24F0030459
S11322B0A04205D0211A304600F00AF80130CDD0F2
S11322C02560D9E770BD00BF9C000020A00000205D
S11322D038B5064C0023054608462360FEF75CFE2D
S11322E0431C02D1236803B12B6038BD30010020A8
S11322F0704770472E2E2F68616C2F696E636C7562
S113230064652F68616C5F7764742E680000000058
S11323102E2E2F68616C2F7372632F68616C5F6659
S11323206C6173682E6300002E2E2F68616C2F730E
S113233072632F68616C5F6932635F735F73796E78
S1132340632E63002E2E2F68616C2F7372632F68C7
S1132350616C5F696F2E63002E2E2F68616C2F7382
S113236072632F68616C5F717370695F73796E63F8
S11323702E6300002E2E2F68616C2F7372632F68FA
S1132380616C5F7370695F6D5F73796E632E630058
S11323902E2E2F68616C2F7372632F68616C5F74CB
S11323A0696D65722E6300002E2E2F68616C2F7587
S11323B074696C732F7372632F7574696C735F6CBB
S11323C06973742E630000002E2E2F68706C2F6EBC
S11323D0766D6374726C2F68706C5F6E766D637467
S11323E0726C2E63000000002E2E2F68706C2F710B
S11323F07370692F68706C5F717370692E6300006D
S11324002E2E2F68706C2F7274632F68706C5F723D
S113241074632E630000000000300040003400406C
S1132420002001410040014100000043000400433A
S11324300000000000000000000000000000000098
S113244000000000000000002E2E2F68706C2F7317
S11324506572636F6D2F68706C5F736572636F6D07
S11324602E6300002E2E2F68706C2F7764742F68F3
S1132470706C5F7764742E6300000000D91B000049
S1132480711C0000091D0000211E0000C91E00006F
S11324900081D30300000000FFFFFFFFFFFFFF9E4A
S11324A0E7FFFFFFFFFFFFFF0000000000940200B2
S11324B000000000FFFFFFFFFFFFFF00000000001F
S11324C00000000000000000000000000000000008
S11324D000000000000000000000000000000000F8
S11324E000000000000000000000000000000000E8
S11324F000000000000000000000000000000000D8
S113250000000000000000000000000000000000C7
S1132510000000000000000000000000F8B500BF4B
S1132520F8BC08BC9E46704789020000F8B500BF9D
S10F2530F8BC08BC9E4670476502000021
S113253C0400002000000000DC240000FC24000047
S113254CBC2400000000000000000000000000009B
S113255C000000000000000000000000000000006B
S113256C000000000000000000000000000000005B
S113257C000000000000000000000000000000004B
S113258C000000000000000000000000000000003B
S107259C0000000037
S9030000FC
