:1000000038C1002005030000F5020000E5020000F1
:10001000F5020000F5020000F502000000000000FB
:10002000000000000000000000000000F5020000D9
:10003000F502000000000000F5020000F5020000DB
:10004000F5020000F5020000F5020000F5020000D4
:10005000F5020000F5020000F5020000F5020000C4
:10006000F5020000F5020000F50200001D17000077
:10007000F5020000F5020000F5020000F5020000A4
:10008000F5020000F5020000F5020000F502000094
:10009000F5020000F5020000F5020000F502000084
:1000A000F5020000F5020000F5020000F502000074
:1000B000F502000099140000AD140000F5020000E4
:1000C000F5020000F5020000F5020000F502000054
:1000D000F5020000F5020000F5020000F502000044
:1000E000F5020000F5020000000000000000000022
:1000F000000000006D160000F5020000F50200008F
:10010000F5020000F5020000F5020000F502000013
:10011000F5020000F5020000F5020000F502000003
:10012000F5020000F50200009D030000F50200004A
:10013000F5020000F5020000F5020000F5020000E3
:10014000F5020000F5020000F5020000F5020000D3
:10015000F5020000F50200000000000000000000B1
:10016000000000000000000000000000000000008F
:10017000000000000000000000000000000000007F
:10018000F5020000F5020000F5020000F502000093
:1001900000000000F5020000F5020000F50200007A
:1001A000F5020000F5020000F5020000F502000073
:1001B000F5020000F5020000F5020000F502000063
:1001C000F5020000F5020000F5020000F502000053
:1001D000F502000000000000000000000000000028
:1001E000000000000000000000000000F502000018
:1001F000F5020000F5020000F5020000000000001A
:10020000000000000000000000000000F5020000F7
:10021000F5020000F5020000F5020000F502000002
:10022000F5020000F5020000F5020000F5020000F2
:10023000F5020000F5020000F5020000F5020000E2
:1002400000000000F5020000F5020000F5020000C9
:10025000F5020000F5020000F5020000F5020000C2
:100260000000000010B5054C237833B9044B13B1DE
:100270000448AFF300800123237010BD6400002008
:10028000000000005C2700000C4B43B10C480D49F6
:1002900010B5AFF300800C48036823B910BD0A48BD
:1002A000036833B97047094B002BF7D0BDE8104005
:1002B0001847064B002BF5D0184700BF0000000080
:1002C0005C270000680000205C27000000000000A0
:1002D00008B5024B9847024B984708BDA907000094
:1002E0002108000082B001230193019B012BFCD067
:1002F00002B0704782B001230193019B012BFCD017
:1003000002B0704708B51C4B1C4A9A4210D01C4BD7
:10031000194A9A420CD2013B9B1A23F0030304337F
:100320001344164951F8040B42F8040B9A42F9D1D0
:10033000144B154A9A420AD2013B9B1A23F003033D
:1003400004331344002142F8041B9342FBD10F4BAA
:100350000F4A22F07F029A60D3F8882042F470029C
:10036000C3F88820BFF34F8FBFF36F8F094B9847B7
:10037000094B9847FEE700BF000000205C27000003
:1003800064000020380100206400002000ED00E03F
:1003900000000000312300009D1B000008B53A203A
:1003A000014B984708BD00BF45130000024A13697E
:1003B00043F04003136170470008004008B5034B49
:1003C000984703490348044B984708BDAD03000014
:1003D00000400041A80000203D0D000030B45A4B01
:1003E0004FF40065C3F88450584AC3F8A820584811
:1003F000C3F8A80093F8CB2002F0FB0283F8CB20CF
:1004000093F8CB2002F0FE0242F0010283F8CB20E9
:1004100093F8B52002F00F0242F0700283F8B52085
:100420004FF480729A604B4999624FF040449C624D
:100430005A6193F8482002F0FB0283F8482093F8B1
:10044000482002F0FE0242F0010283F8482093F8AF
:10045000342002F0F00242F0070283F834204FF417
:1004600000729A6001F5807199629C625A6193F8FA
:10047000492002F0FB0283F8492093F8492002F05A
:10048000FE0242F0010283F8492093F8342002F082
:100490000F0242F0700283F834204FF480619960BB
:1004A0002D4A9A629C62596193F84A2002F0FB023D
:1004B00083F84A2093F84A2002F0FE0242F001023B
:1004C00083F84A2093F8352002F0F00242F0070248
:1004D00083F835209D60214A9A629C625D6193F8A1
:1004E0004B2002F0FB0283F84B2093F84B2002F0E4
:1004F000FE0242F0010283F84B2093F8352002F00F
:100500000F0242F0700283F83520C3F88410144AB9
:10051000C3F8A820C3F8A80093F8CA2002F0FB0291
:1005200083F8CA2093F8CA2002F0FE0242F00102CA
:1005300083F8CA2093F8B52002F0F00242F00702D7
:1005400083F8B52030BC70470080004100080240AD
:10055000000002C00001004000040040000800400C
:1005600000040240064B1A6942F400521A611A69EB
:1005700042F400121A61DA6942F40052DA617047FB
:100580000008004008B5044B984704490448054B4F
:100590009847054B984708BD6505000000340042A8
:1005A000E0000020990F0000DD03000008B50248BC
:1005B000024B984708BD00BFE0000020C90F0000B3
:1005C000284B10225A619A6002F180429A624FF0E1
:1005D0004041996293F8442002F0FE0242F0010289
:1005E00083F8442093F8322002F0F00242F0030234
:1005F00083F8322020225A619A6002F180429A6286
:10060000996293F8452002F0FE0242F0010283F85D
:10061000452093F8322002F00F0242F0300283F8B6
:10062000322040225A6002F1804202F500329A6282
:100630000D4A9A6293F8462002F0FB0283F84620A6
:1006400093F8462002F0FE0242F0010283F84620B1
:1006500093F8332002F0F00242F0030283F83320D3
:10066000704700BF00800041000002C0064B4022DE
:10067000C3F89C204322C3F88C20044A536943F4F6
:1006800080535361704700BF001C004000080040C9
:1006900008B5044B984704490448054B9847054B57
:1006A000984708BD6D06000000300040C8000020DB
:1006B00049100000C1050000164B93F8512002F0CC
:1006C000FB0283F8512093F8512002F0FE0242F021
:1006D000010283F8512093F8382002F00F0242F013
:1006E000300283F8382093F8502002F0FB0283F8A0
:1006F000502093F8502002F0FE0242F0010283F8ED
:10070000502093F8382002F0F00242F0030283F800
:100710003820704700800041064B4022C3F8E0209B
:100720004322C3F88C20044A936943F480639361A5
:10073000704700BF001C00400008004008B5044B93
:10074000984704490448054B9847054B984708BD0E
:100750001907000000400141E4000020590E00008C
:10076000B9060000024A536943F48073536170472D
:100770000008004008B5064B98474822054901206B
:10078000054B98470548064B0360064B984708BD44
:100790006507000014250000B9120000C400002005
:1007A00000200040311B000008B50B4B98470B4B55
:1007B00098470B4A536943F400735361094B9847B8
:1007C0000246094909480A4B98470A4B98470A4B81
:1007D00098470A4B984708BD89130000BD030000E5
:1007E000000800401917000000240040F00000201D
:1007F0007D120000910600003D0700007507000013
:1008000008B5024B9847024B984708BD8505000084
:100810005521000008B5014B984708BDAD05000003
:100820001E4B012199601E4A9A624FF040429A6223
:10083000996193F8401001F0FB0183F84010022108
:100840009960184898629A62596193F8411001F0D2
:10085000FB0183F841100821C3F8841001F18041A5
:1008600001F50031C3F8A8100F49C3F8A81093F898
:10087000C31001F0FB0183F8C3100421C3F88810F2
:100880000230C3F8A800C3F8A820C3F8941093F866
:10089000C22002F0FB0283F8C220704700800041B2
:1008A0000100004002000040000002C070B582B0AC
:1008B00005460E46094B01229A6102225A61084CF4
:1008C00001A92046074B98472046074B98473246D8
:1008D00029460198054B984702B070BD0080004141
:1008E000C80000207911000099100000390F0000A5
:1008F00070B582B005460E46094B01225A610222AC
:100900009A61084C01A92046074B98472046074B9F
:100910009847324629460198054B984702B070BD6A
:1009200000800041C80000207911000099100000EB
:10093000690F000070B582B005460E46094C01A94A
:100940002046094B984710212046084B98472046DF
:10095000074B9847324629460198064B984702B004
:1009600070BD00BFE40000200D0F0000A10E0000CC
:10097000E50E0000690F000070B582B005460E4616
:10098000094C01A92046094B984710212046084BE5
:1009900098472046074B9847324629460198064B10
:1009A000984702B070BD00BFE40000200D0F0000AA
:1009B000A10E0000E50E0000390F000010B5084B35
:1009C00098470021B120074CA04707498B20A0473A
:1009D0000649A320A0470649BB20A04710BD00BF81
:1009E000852100000D2200000CED00E01200002324
:1009F0000400FA0570B58D20294CA0474FF0A041A6
:100A0000A920284B98478D20A04700F07040B0F1F6
:100A1000704F04D00120244B9847012070BD23491A
:100A2000A320204CA047F021B120A0479F201C4CC0
:100A3000A0479F20A0471E4B98422BD01D4EB04789
:100A40000021B120174CA0471B498B20A0471B4D0C
:100A50002946A320A0471A49BB20A047B047002140
:100A6000B120A04717498B20A0472946A320A047C3
:100A70000121BB20A047B0470021B120A047124967
:100A80008B20A0472946A320A0471049BB20A047A0
:100A9000002070BD0220044B9847012070BD00BFAC
:100AA0006D2200000D220000092300000200002337
:100AB0000100E61685210000F0ED00E012000023A1
:100AC00003005FA0FCED00E00CED00E00400FA057F
:100AD0002DE9F84F07468846464DA8470021B1202A
:100AE000454CA04745498B20A047454E3146A320A1
:100AF000A0470221BB20A047A8470021B120A04762
:100B000040498B20A0473146A320A0470121BB20AC
:100B1000A047C8203C4B9847A8470021B120A047D8
:100B20003A498B20A0473A49A320A0479F20394C3F
:100B3000A0479F20A04738B93226334D3046A847FA
:100B40009F20A0470028F9D02A4B98470021B120C8
:100B5000294CA04729498B20A0472949A320A04719
:100B60000121BB20A0472C4B1B68002B3FD0BB466C
:100B7000DFF880A04FF000093B46FA7801379C78F7
:100B8000240444EA02641A7814435B7844EA032498
:100B9000D0474946B120184DA84741468B20A84769
:100BA0001B4E3146A320A8472146BB20A847D0476B
:100BB0004946B120A84719498B20A8473146A320B0
:100BC000A8479F20134CA0479F20A04738B9012673
:100BD0000D4D3046A8479F20A0470028F9D008F1C6
:100BE0000408A7EB0B030C4A12689342C4D3BDE878
:100BF000F88F00BF852100000D22000004E50140B0
:100C0000120000230CE50140090D000000E4014042
:100C1000020000236D2200008000002008E4014053
:100C200009B13046704770B515460446064B9847E3
:100C3000064608B1304670BD29462046034B98470A
:100C4000034B9847F6E700BFF5090000D10A000002
:100C5000BD0900002DE9F84380460C4691461F4629
:100C6000174B98470420174B9847054623464246A2
:100C7000014615480068154EB047154B9847A5200A
:100C8000144B9847013810F1030F10D8A408124BE9
:100C90001C603A4649462846104B98470446284669
:100CA0000F4B98470F4B98472046BDE8F88300202C
:100CB0000D4B9847A408084B1C600124EFE700BFC8
:100CC0000108000079230000300100204B210000C2
:100CD000A92100006D22000080000020210C0000EE
:100CE000892300001508000009230000EFF310839A
:100CF000036072B6BFF35F8F7047BFF35F8F036807
:100D000083F310887047000010B5044B1C68044B37
:100D1000984701462046034B984710BD84000020A9
:100D2000611300008113000008B5436903B19847BF
:100D300008BD08B5836903B1984708BD38B50D46AD
:100D4000044690B1081C18BF012038220849094BFD
:100D5000984729462046084B9847034618B9074A42
:100D60002260074A6260184638BD0020EDE700BFE8
:100D700030250000B912000021140000290D0000E8
:100D8000330D00002DE9F8430F469046044620B38A
:100D900029B3101C18BF0120B6221249124B9847E4
:100DA000043C124D2046A8470028FBD0013F0026F6
:100DB000DFF840900D4D17F8011F2046C847204628
:100DC000A8470028FBD00136B6B2B045F3D820467C
:100DD000074B98473046BDE8F8830020DCE7002049
:100DE000DAE700BF48250000B91200000F19000023
:100DF00023190000011900002DE9F8430F46904621
:100E00000446E0B1E9B1101C18BF01209C220E4934
:100E10000E4B9847013F0026043C0D4DDFF83490FF
:100E20002046A8470028FBD02046C84707F8010FF6
:100E30000136B6B2B045F3D83046BDE8F88300209D
:100E4000E4E70020E2E700BF48250000B9120000F7
:100E5000191900000719000038B50D46044690B175
:100E6000081C18BF012035220849094B984729461C
:100E70002046084B9847034618B9074AA260074A1C
:100E80006260184638BD0020EDE700BF482500002D
:100E9000B91200009D180000F90D0000850D00003A
:100EA00038B50D46044651220A49003018BF0120CA
:100EB000094B98472046094B984720B129462046C0
:100EC000074B984738BD05F07F012046044B9847F3
:100ED00038BD00BF48250000B9120000E718000027
:100EE000F118000010B504465F220549003018BF14
:100EF0000120044B98472046034B984710BD00BF84
:100F000048250000B9120000D118000038B50D4680
:100F1000044650B1081C18BF012073220449054B38
:100F2000984704342C60002038BD0020F5E700BF4E
:100F300048250000B912000070B50D46164604465B
:100F400060B1081C18BF012034220549054B9847A1
:100F50002368324629462046984770BD0020F3E7B3
:100F600064250000B912000070B50D46164604460F
:100F700060B1081C18BF01203D220549054B984768
:100F80006368324629462046984770BD0020F3E743
:100F900064250000B912000038B50C46054658B16A
:100FA000081C18BF012031220449054B98472146EF
:100FB0002846044B984738BD0020F4E77825000008
:100FC000B91200004915000010B504463822054941
:100FD000003018BF0120044B98472046034B984728
:100FE00010BD00BF78250000B91200008115000077
:100FF00010B504463F220549003018BF0120044BBC
:1010000098472046034B984710BD00BF7825000045
:10101000B91200008B15000038B50C46054658B1D2
:10102000081C18BF01204D220449054B9847214652
:101030002846044B984738BD0020F4E77825000087
:10104000B91200009515000038B50D460446B8B138
:10105000081C18BF012040220A490B4B9847204624
:1010600040F8045F2946094B9847002807DB4FF4F6
:101070000043A382064B2361064BE360002038BD8A
:101080000020E8E794250000B91200002D190000A7
:101090003D1100000111000010B50446572205491A
:1010A000003018BF0120044B9847201D034B984780
:1010B00010BD00BF94250000B9120000211A0000E5
:1010C00030B585B00C46054690B1081C18BF01200C
:1010D000B3220849084B9847236801936368029339
:1010E000A368039301A9281D044B984705B030BDA0
:1010F0000020EDE794250000B9120000511A00000D
:1011000070B584B00E4615460446A3220849003047
:1011100018BF0120074B98470023029301960395BF
:1011200001A9A4F10C00044B984704B070BD00BFA6
:1011300094250000B9120000C110000070B584B001
:101140000E461546044687220849003018BF012084
:10115000074B9847029600230193039501A9A4F138
:101160000C00044B984704B070BD00BF94250000EC
:10117000B9120000C110000038B50D46044650B148
:10118000081C18BF0120BD220449054B98470C34A8
:101190002C60002038BD0020F5E700BF942500003A
:1011A000B9120000F8B5844607682FB18D683C4637
:1011B0000026C2F1010E0BE00E4B9847F8BD7344B8
:1011C000A0680344AB420AD22368264653B11C46AA
:1011D00063689342F3D8A06803449B1AF2E7A742DE
:1011E00004D034462046044B9847F8BD6046014B76
:1011F0009847F8BDE11200000D1300002DE9F047FB
:101200004469076901370761037E13F0010F13D1A9
:10121000037E13F0020F0FD154B36368FB1AA26868
:10122000934207D3064600F11408DFF84890DFF830
:1012300048A012E0BDE8F087037E43F00203037686
:10124000BDE8F0877569E3682046984785B12C466C
:101250006B68FB1AAA6893420AD34046C847237CAE
:10126000012BEFD167603A4621464046D047E9E777
:10127000BDE8F08715130000A511000038B50D4634
:10128000044678B1081C18BF01203B220649074BD1
:10129000984729462046064B984700202061054B79
:1012A000236038BD0020F0E7B0250000B91200002F
:1012B000B1160000FD11000000B900BE70470368C0
:1012C0004BB18B4209D01B681BB19942FBD1012065
:1012D00070470020704700207047012070470000D1
:1012E00038B504460D46064B984780F00100392278
:1012F0000449C0B2044B984723682B60256038BD71
:10130000BF120000C8250000B912000003680B607E
:101310000160704703680BB11A6802601846704795
:101320000346064A126822B1044A10680344136057
:1013300070470349014A1160F6E700BF88000020AA
:1013400038C10020430900F01F00012202FA00F01A
:101350006033024A42F82300704700BF00E100E01A
:10136000C0EB0010C30002330348A0FB03235B085B
:10137000642000FB03F07047ABAAAAAA000000009B
:101380000139FDD8704700BF08B5084A13889BB2E1
:101390001380074B9847074B9847074B9847074BD5
:1013A000984740F6FF70064B984708BD0040004143
:1013B000C1140000D5140000E9130000F11400006E
:1013C000C513000010F0010F08D0054A054B1A6242
:1013D000194643F6FD724B681342FCD1704700BFBB
:1013E00008010100001C00400122014B5A717047A6
:1013F0000008004008B503691A8A12F0010F05D0F1
:1014000001221A82036853B1984708BD1A8A92B222
:101410002AB140F25E221A82436803B1984708BDA0
:1014200038B50C46054650B31648814214BF00201B
:1014300001204B221449154B98472C61238823F037
:10144000C0039B049B0C2380114B1D60114B4FF07C
:101450000051C3F88010BFF34F8FBFF36F8F4FF071
:101460008042C3F88020BFF34F8FBFF36F8FC3F864
:101470008011C3F8802119601A60002038BD002057
:10148000D7E700BF00400041E8250000B912000086
:101490008C00002000E100E008B5024B1868024B08
:1014A000984708BD8C000020F513000008B5024BDA
:1014B0001868024B984708BD8C000020F513000007
:1014C000034BDA6902F47C52DA6101221A74704724
:1014D00000140040044A054B9A611A46136913F040
:1014E000020FFBD0704700BF06260003001000402B
:1014F00040F23F12134B9A641A46136D13F0060F15
:10150000FBD1104B3022DA64022283F844201A46C1
:10151000136D13F0020FFBD10A4B5A6D12F0010F3D
:1015200003D15A6D12F0020FF7D0064A92F84430F8
:1015300043F0800382F84430136D13F0060FFBD1A3
:10154000704700BF0010004038B50C46054680B11A
:10155000081C18BF012040220749084B98472C60FF
:1015600001232360112363604FF40073A360002004
:1015700038BD0020EFE700BF08260000B9120000C8
:10158000036801221A6000207047036802221A6073
:101590000020704770B505460C4603680A7812F0C3
:1015A000200F1CBF8A681A630A7812F0100F05D04A
:1015B000596B21F0FF0122790A435A63227812F015
:1015C000400F06D05A6B22F47F02617942EA014251
:1015D0005A6322689A63237813F0800F0CD12B682A
:1015E0001F4A1A602A68D36913F4806FFBD04FF446
:1015F0008063D361002070BD296813F0200F1ABFEB
:10160000A26802F180664FF080668B6B2369ABB1F4
:10161000012082221349144B984723699BB1E0684B
:1016200038B1721E184413F8011B02F8011F8342DF
:10163000F9D1BFF34F8FBFF36F8FD0E760690030F0
:1016400018BF0120E5E76369E1680029F1D0013B9B
:10165000314416F8012B03F8012FB142F9D1E8E724
:101660000200000108260000B912000000B583B096
:101670000D4B9B78DBB20193019B13F0020F06D058
:101680000A4B1B681BB1084A5068984709E0019B48
:1016900013F0010F05D0054B5B6813B1024A506887
:1016A000984703B05DF804FB000002410C010020E4
:1016B00038B50C46054630221449003018BF0120C9
:1016C000134B9847EC600123238048F203022369FF
:1016D0001342FCD1EB681A6912F0010FFBD148F2FA
:1016E00080021A8048F203011A690A42FCD1EA68B2
:1016F00020231362136913F0600FFBD1EB684FF4E2
:1017000080725A81034B1D60002038BD20260000E6
:10171000B9120000900000200020704710B5084B5F
:101720001C68E3689B8913F4807F07D023680BB1A2
:1017300020469847E3684FF480729A8110BD00BF3D
:101740009000002070B487B006466C460C4D0FCD5B
:101750000FC495E8030084E80300009BB3420CD05B
:10176000324601205DF82030934207D00130062830
:10177000F8D1002007B070BC70470020C0B2F9E774
:1017800038260000C36913F0010F09D1036843F044
:1017900002030360C36913F0030FFBD100207047FD
:1017A0006FF003007047000010B504461D4B9847CA
:1017B000032808D040F2B7721B4900201B4B984702
:1017C0006FF00C0010BDE36913F0010F19D1E3694C
:1017D00013F0030FFBD1236813F0020F0BD0236823
:1017E00023F002032360E36913F0030FFBD1E369E5
:1017F00013F0020FFBD111232360E36913F0030FF1
:10180000FBD1E36913F0010FFBD1094B2360E369BE
:1018100013F0030FFBD14FF4A063636020236362D6
:10182000002010BD4517000068260000B912000016
:101830009000200070B582B004460E46E36913F0B4
:10184000030FFBD12568C5F3400501A8114B98474C
:10185000236823F002032360E36913F0030FFBD135
:10186000636A23F4FF6323F0060340F2FE7101EA8A
:1018700046011943616201A8074B98473DB12368AF
:1018800043F002032360E36913F0030FFBD1002050
:1018900002B070BDED0C0000FB0C000038B50C462A
:1018A000054640F2A6620749003018BF0120064BEA
:1018B00098472046054B9847034600B92C601846C8
:1018C00038BD00BF68260000B9120000A91700004B
:1018D0000268136843F002031360D36913F0030F27
:1018E000FBD1002070470368586AC0F3C0307047CE
:1018F00008B50068014B984708BD00BF35180000C7
:101900000368996270470368986AC0B270470368B9
:10191000187EC0F3800070470368187EC0F3800013
:101920007047036804221A760020704738B50546D0
:101930000C460846364B984760B1002D55D040F60E
:101940003C123449201C18BF0120334B98476FF0DC
:101950000C0038BD002D51D140F63C122D4900201D
:101960002D4B9847E36913F0010F19D1E36913F088
:10197000030FFBD1236813F0020F0BD0236823F071
:1019800002032360E36913F0030FFBD1E36913F053
:10199000020FFBD10D232360E36913F0030FFBD18A
:1019A000E36913F0010FFBD12C6040F606121949D0
:1019B000201C18BF0120184B9847184B2360E3697F
:1019C00013F0030FFBD14FF400336360E36913F0AE
:1019D000170FFBD10E232373002084F8300001235E
:1019E0002B7140F2FF13EB8038BD40F63C120949E1
:1019F0000020094B98476FF00C0038BD40F63C12B0
:101A00000449201C18BF0120034B9847AAE700BFD8
:101A10004517000068260000B91200000C002040A5
:101A200010B5044660B10068003018BF012040F6D0
:101A30009B120449044B98472068044B984710BDFB
:101A40000020F4E768260000B912000085170000A6
:101A50002DE9F84381460E460468D1F800804D68B0
:101A60000779A8B1201C18BF01204FF42A622E4923
:101A70002E4B9847E36913F0070F34D1E06910F05B
:101A80000300FBD1236813F0020F30D0024608E0B8
:101A90000020EAE7013213F0800F12D1B3688342CD
:101AA0001ED9237EDBB213F0040F24D0A16A002DCF
:101AB000F0D02970012F91BF0135090A69700235F4
:101AC000E8E74FF6FF736383802323766FF01200FD
:101AD000237E13F0030FFBD003232376BDE8F883A6
:101AE0009342DED8F4E76FF00300BDE8F8836FF0AF
:101AF0001300BDE8F8839042CDD813F0010FCAD08F
:101B0000B9F80610B8F1000F0BD098F80010012FAB
:101B100091BF08F1010898F801E041EA0E2108F1AF
:101B200002080130A162B6E768260000B912000081
:101B300010B5044630B30068003018BF01205022B1
:101B40001449154B984723689A6812F00E0FFBD181
:101B50001A78D20918D19A6812F00E0FFBD11A78B0
:101B600012F0020F13D11A7802F0FB021A709A6871
:101B700012F00E0FFBD12268537803F0F00353707C
:101B8000002010BD0020DAE76FF0100010BD6FF0EC
:101B9000100010BD84260000B91200002DE9F041AC
:101BA0001E4B98471E4C1F4D1F4E12212046A84722
:101BB0002378CC2BF9D16378BB2BF6D1A27AE37AC8
:101BC0001B0443EA0263627B134394F80CC0A17BBD
:101BD000E27B120442EA0162617C0A4394F810E05D
:101BE000A079E179090441EA0061607A0143277A2A
:101BF00094F80280E078000440EA086094F80580D8
:101C000040EA080094F8048043EA0C2342EA0E22DA
:101C100041EA072140EA0820B047C6E7D1020000A8
:101C20001C01002035090000550C000000B589B0EA
:101C30000023019302930393059301F0070141F000
:101C400090018DF804108DF808200423049307AB4D
:101C5000069301A9034B98479DF81C0009B05DF855
:101C600004FB00BF19100000F8B507460526002543
:101C7000044C324629463846A04710F0010FF8D1EF
:101C8000F8BD00BF2D1C0000F0B587B00446164615
:101C9000002A14BF0622042200230093019302931A
:101CA00003930493059301F0070141F010018DF8AF
:101CB00000108DF80420052219460B4B9847C0F3FD
:101CC0004000B0420DD03546084F074E69462046C9
:101CD000B847052200212046B047C0F34000A84283
:101CE000F4D107B0F0BD00BF2D1C0000191000009A
:101CF000F0B587B006460F46002400940194029484
:101D0000059401F0070545F090058DF800504FF05F
:101D100000054FF0020E6EF305158DF801508DF899
:101D200004200422039204930122064DA847694629
:101D30003046054B9847224639463046A84707B0FB
:101D4000F0BD00BF891C00001910000070B586B0FE
:101D500005680024009401940494B0248DF8004098
:101D60004FF00004012666F305148DF801400824A5
:101D70008DF802400B248DF80440029203930591E4
:101D8000037A4BB16B238DF804309DF800300222AA
:101D900062F302038DF8003069462846024B9847EB
:101DA000002006B070BD00BF19100000F8B5044651
:101DB0000F4601220021084DA8472046074EB04794
:101DC00039462046064B98472046B0470022114628
:101DD0002046A847F8BD00BF891C0000691C000010
:101DE000191000002DE9F04F89B001921E460368DA
:101DF00000930023029303930793B0238DF80830D8
:101E000030238DF8093002238DF80C3004920596AA
:101E10000691370A23D08B460C4600254FF4807A72
:101E2000019BA3EB0109DFF85080CDF814A004EB6F
:101E300009030493069402A90098C04704F580742E
:101E40000135AF42F1D12D020BEB0502019B1D4480
:101E500016F0FF0308D1002009B0BDE8F08F02A9F9
:101E60000098054B9847F6E705930495069202A95A
:101E70000098014B9847EEE7AD1D00002DE9F043B7
:101E800087B01546066800230093019302930393DD
:101E90000493059330238DF800304FF000030222A5
:101EA00062F305138DF8013041EA0503C3F30B0318
:101EB000002B5ED10C46052200213046314B98475D
:101EC00010F0010F03D0022007B0BDE8F08301221B
:101ED000002130462C4B984714B9B5F5001F07D2A6
:101EE000002D3FD04FF0D809DFF8A480274F26E01F
:101EF0009DF800306FF345138DF80030C7238DF83F
:101F0000043069463046224B9847A5F50015304607
:101F10001E4B9847E4E7C4F30B036BBBB5F5805F3A
:101F20002DD3029420238DF8043069463046C047F3
:101F300004F58054A5F580553046B84795B1A3B255
:101F4000002BE8D1B5F5803FE5D302948DF80490DD
:101F500069463046C04704F58034A5F580353046E3
:101F6000B847EBE7002211463046074B9847002060
:101F7000AAE76FF00C00A7E76FF00C00A4E76FF082
:101F80000C00A1E72D1C0000891C0000691C00004A
:101F900019100000F0B589B004680025019502957C
:101FA00003950595F4238DF80430022343F0500285
:101FB0008DF8052005228DF80620EB218DF80810FC
:101FC0008DF80930012304930DF11F030693294670
:101FD0002046174EB0478DF81C0035222946204672
:101FE000B0478DF81D00332229462046B0478DF8B2
:101FF0001E009DF81D0010F0020F12D10D4F40F091
:1020000002008DF81D0007AB012229462046B84783
:10201000352229462046B0478DF81D0010F0020FEA
:10202000EDD001A92046044B9847002009B0F0BD2F
:102030002D1C0000F11C00001910000030B587B005
:102040000568002400940194029403940494059478
:1020500010238DF80030FF238DF804300649284600
:10206000064B98472846064B984769462846054B35
:102070009847204607B030BD00340042990F000059
:10208000F10F0000191000002DE9F04182B0064662
:102090001746284A284B98473468052200212046D5
:1020A000264DA8478DF80400352200212046A84778
:1020B0008DF80500332200212046A8478DF8060040
:1020C0003772CFB99DF8050010F0020F2DD0002512
:1020D000DFF86C80194F20F002008DF8050001AB8D
:1020E000012229462046C047352229462046B847C6
:1020F00010F0020FEFD118E09DF8050010F0020F6C
:1021000013D10025DFF838800C4F40F002008DF825
:10211000050001AB012229462046C0473522294649
:102120002046B84710F0020FEFD0304602B0BDE8AD
:10213000F08100BF9C260000452100002D1C0000FE
:10214000F11C000001604260704710B544682468CB
:10215000A04710BD10B5064C2046064B98470022FC
:1021600021460548054B9847054B186010BD00BF38
:10217000E0000020F10F0000940000208920000002
:102180003001002000B583B0054A92E803008DE8D5
:10219000030008216846034B984703B05DF804FB31
:1021A000B0260000AD08000030B587B001AC054D89
:1021B0000FCD0FC42B682370112101A8024B984743
:1021C00007B030BDB8260000AD08000000B583B0F0
:1021D000054A92E803008DE8030008216846034B96
:1021E000984703B05DF804FBCC260000AD08000062
:1021F000034648B1002003F001021044C0B25B085E
:10220000F9D100F0010070470020FAE7F0B583B083
:1022100006460C464D011335EDB20846114B984762
:10222000E30EC4F3C741C4F3C727C4F3C704B0B96E
:1022300000228DF800208DF801608DF802508DF895
:1022400003408DF804708DF805108DF806308DF878
:10225000072008216846044B984703B0F0BD43F0BF
:102260002003E5E7F1210000AD08000030B585B09E
:1022700004AB03F8090D012118461E4B98470521B0
:1022800002A81D4B98479DF8082012F0020F2ED08F
:102290009DF80B109DF80C300C0944EA0314E4B2CD
:1022A0008DF80C409DF80A502B0943EA0113DBB26C
:1022B0008DF80B309DF80900010941EA0511C9B2FA
:1022C0008DF80A10120942EA0012D2B28DF80920E4
:1022D0001B0443EA0464144344EA0124074B98476F
:1022E000074B9847074B9847204605B030BD002460
:1022F000F4E700BFAD080000F108000085210000F0
:10230000A9210000CD21000000B583B0CC238DF8B9
:102310000430EE238DF805308DF80600032101A866
:10232000024B984703B05DF804FB00BF7909000039
:1023300070B50D4E0D4CA41BA4100025A54209D16B
:102340000B4E0C4C00F0FAF9A41BA4100025A5427A
:1023500005D170BD56F8253098470135EEE756F89F
:10236000253098470135F2E748270000482700004C
:10237000482700004C270000024B0146186800F077
:1023800059B800BF00000020024B0146186800F059
:1023900003B800BF0000002038B50546002945D02D
:1023A00051F8043C0C1F002BB8BFE41800F0B0F843
:1023B0001F4A1368104633B9636014602846BDE8AD
:1023C000384000F0A6B8A3420CD9216862189342A5
:1023D00004BF1A685B68636004BF5218226004601F
:1023E000ECE713465A680AB1A242FAD9196858189C
:1023F000A0420BD120680144581882421960DDD1F7
:10240000106852685A6001441960D7E702D90C235A
:102410002B60D3E7206821188A4204BF11685268F4
:10242000626004BF091821605C60C7E738BD00BF67
:10243000A000002070B5CD1C25F0030508350C2D3B
:1024400038BF0C25002D064601DBA94203D90C2319
:102450003360002070BD00F05BF8234A1468214609
:1024600091B9224C23681BB9304600F041F8206036
:102470002946304600F03CF8431C26D10C2333603B
:10248000304600F046F8E4E70B685B1B1AD40B2BD0
:102490000FD90B60CD50CC18304600F03AF804F15B
:1024A0000B00231D20F00700C31A1BD05A42E25034
:1024B00070BD8C420DBF63684B686360136018BFCA
:1024C0000C46E9E70C464968CAE7C41C24F003043B
:1024D000A04205D0211A304600F00AF80130CDD0D4
:1024E0002560D9E770BD00BFA0000020A400002037
:1024F00038B5064C0023054608462360FEF710FF5A
:10250000431C02D1236803B12B6038BD3401002085
:10251000704770472E2E2F68616C2F696E636C7543
:1025200064652F68616C5F7764742E68000000003A
:102530002E2E2F68616C2F7372632F68616C5F663B
:102540006C6173682E6300002E2E2F68616C2F73F0
:1025500072632F68616C5F6932635F735F73796E5A
:10256000632E63002E2E2F68616C2F7372632F68A9
:10257000616C5F696F2E63002E2E2F68616C2F7364
:1025800072632F68616C5F717370695F73796E63DA
:102590002E6300002E2E2F68616C2F7372632F68DC
:1025A000616C5F7370695F6D5F73796E632E63003A
:1025B0002E2E2F68616C2F7372632F68616C5F74AD
:1025C000696D65722E6300002E2E2F68616C2F7569
:1025D00074696C732F7372632F7574696C735F6C9D
:1025E0006973742E630000002E2E2F68706C2F6E9E
:1025F000766D6374726C2F68706C5F6E766D637449
:10260000726C2E63000000002E2E2F68706C2F71EC
:102610007370692F68706C5F717370692E6300004E
:102620002E2E2F68706C2F7274632F68706C5F721F
:1026300074632E630000000000300040003400404E
:10264000002001410040014100000043000400431C
:10265000000000000000000000000000000000007A
:1026600000000000000000002E2E2F68706C2F73F9
:102670006572636F6D2F68706C5F736572636F6DE9
:102680002E6300002E2E2F68706C2F7764742F68D5
:10269000706C5F7764742E63000000004D1D0000B5
:1026A000E51D00007D1E0000951F00003D2000007C
:1026B0000081D30300000000FFFFFFFFFFFFFF9E2C
:1026C000E7FFFFFFFFFFFFFF000000000094020094
:1026D00000000000FFFFFFFFFFFFFF000000000001
:1026E00000000000000000000000000000000000EA
:1026F00000000000000000000000000000000000DA
:1027000000000000000000000000000000000000C9
:1027100000000000000000000000000000000000B9
:1027200000000000000000000000000000000000A9
:10273000000000000000000000000000F8B500BF2D
:10274000F8BC08BC9E46704789020000F8B500BF7F
:0C275000F8BC08BC9E4670476502000003
:10275C000400002000000000FC2600001C270000E4
:10276C00DC2600000000000000000000000000005B
:10277C00000000000000000000000000000000004D
:10278C00000000000000000000000000000000003D
:10279C00000000000000000000000000000000002D
:1027AC00000000000000000000000000000000001D
:0427BC000000000019
:00000001FF
