:10000000B8C00020ED020000DD020000DD020000AB
:10001000DD020000DD020000DD0200000000000043
:10002000000000000000000000000000DD020000F1
:10003000DD02000000000000DD020000DD02000023
:10004000DD020000DD020000DD020000DD02000034
:10005000DD020000DD020000DD020000DD02000024
:10006000DD020000DD020000DD0200001D130000C3
:10007000DD020000DD020000DD020000DD02000004
:10008000DD020000F90F0000051000001110000053
:10009000DD020000DD020000DD020000DD020000E4
:1000A000DD020000DD020000DD020000DD020000D4
:1000B000DD020000F110000005110000DD0200006B
:1000C000DD020000DD020000DD020000DD020000B4
:1000D000DD020000DD020000DD020000DD020000A4
:1000E000DD020000DD020000000000000000000052
:1000F000000000006D120000DD020000DD020000C3
:10010000DD020000DD020000DD020000DD02000073
:10011000DD020000DD020000DD020000DD02000063
:10012000DD020000DD020000DD020000DD02000053
:10013000DD020000DD020000DD020000DD02000043
:10014000DD020000DD020000DD020000DD02000033
:10015000DD020000DD0200000000000000000000E1
:10016000000000000000000000000000000000008F
:10017000000000000000000000000000000000007F
:10018000DD020000DD020000DD020000DD020000F3
:1001900000000000DD020000DD020000DD020000C2
:1001A000DD020000DD020000DD020000DD020000D3
:1001B000DD020000DD020000DD020000DD020000C3
:1001C000DD020000DD020000DD020000DD020000B3
:1001D000DD02000000000000000000000000000040
:1001E000000000000000000000000000DD02000030
:1001F000DD020000DD020000DD0200000000000062
:10020000000000000000000000000000DD0200000F
:10021000DD020000DD020000DD020000DD02000062
:10022000DD020000DD020000DD020000DD02000052
:10023000DD020000DD020000DD020000DD02000042
:1002400000000000DD020000DD020000DD02000011
:10025000DD020000DD020000DD020000DD02000022
:100260000000000010B5054C237833B9044B13B1DE
:100270000448AFF300800123237010BD000000206C
:10028000000000002C1F00000C4B43B10C480D492E
:1002900010B5AFF300800C48036823B910BD0A48BD
:1002A000036833B97047094B002BF7D0BDE8104005
:1002B0001847064B002BF5D0184700BF0000000080
:1002C0002C1F0000040000202C1F00000000000074
:1002D00008B5014B984708BDCD07000082B0012347
:1002E0000193019B012BFCD002B0704708B51C4B59
:1002F0001C4A9A4210D01C4B194A9A420CD2013B1C
:100300009B1A23F0030304331344164951F8040BDA
:1003100042F8040B9A42F9D1144B154A9A420AD278
:10032000013B9B1A23F0030304331344002142F8DA
:10033000041B9342FBD10F4B0F4A22F07F029A60BD
:10034000D3F8882042F47002C3F88820BFF34F8F9F
:10035000BFF36F8F094B9847094B9847FEE700BFE3
:10036000000000202C1F000000000020B40000202E
:100370000000002000ED00E000000000151D00005E
:1003800075150000F0B41B4B08275F601A4E9E6283
:100390001A4D9D6293F8432002F0FB0283F843203C
:1003A00004229A60164C9C624FF0404098629A6119
:1003B00093F8421001F0FB0183F84210C3F88470F7
:1003C000C3F8A860C3F8A85093F8C31001F0FB016C
:1003D00083F8C310C3F88820C3F8A840C3F8A80066
:1003E000C3F8942093F8C22002F0FB0283F8C220E5
:1003F000F0BC70470080004108000240000002C0CD
:100400000400004008B540202E4BC3F890002E4A4F
:10041000536943F4806353612C4B20225A6002F1EC
:10042000804202F500329A622949996293F8452088
:1004300002F0FB0283F8452093F8452002F0FE020B
:1004400042F0010283F8452093F8322002F00F02B7
:1004500083F8322058601F4A9A62996293F84620C6
:1004600002F0FB0283F8462093F8462002F0FE02D9
:1004700042F0010283F8462093F8332002F0F002A4
:1004800083F8332080225A6002F1804202F5003264
:100490009A62996293F8472002F0FB0283F84720A2
:1004A00093F8472002F0FE0242F0010283F8472051
:1004B00093F8332002F00F0283F83320064B98475D
:1004C00008BD00BF001C0040000800400080004143
:1004D000000002C04000024029090000024A1369DE
:1004E00043F04003136170470008004008B5034B18
:1004F000984703490348044B984708BDDD040000B2
:1005000000400041540000206909000030B45A4BFB
:100510004FF40065C3F88450584AC3F8A8205848DF
:10052000C3F8A80093F8CB2002F0FB0283F8CB209D
:1005300093F8CB2002F0FE0242F0010283F8CB20B8
:1005400093F8B52002F00F0242F0700283F8B52054
:100550004FF480729A604B4999624FF040449C621C
:100560005A6193F8482002F0FB0283F8482093F880
:10057000482002F0FE0242F0010283F8482093F87E
:10058000342002F0F00242F0070283F834204FF4E6
:1005900000729A6001F5807199629C625A6193F8C9
:1005A000492002F0FB0283F8492093F8492002F029
:1005B000FE0242F0010283F8492093F8342002F051
:1005C0000F0242F0700283F834204FF4806199608A
:1005D0002D4A9A629C62596193F84A2002F0FB020C
:1005E00083F84A2093F84A2002F0FE0242F001020A
:1005F00083F84A2093F8352002F0F00242F0070217
:1006000083F835209D60214A9A629C625D6193F86F
:100610004B2002F0FB0283F84B2093F84B2002F0B2
:10062000FE0242F0010283F84B2093F8352002F0DD
:100630000F0242F0700283F83520C3F88410144A88
:10064000C3F8A820C3F8A80093F8CA2002F0FB0260
:1006500083F8CA2093F8CA2002F0FE0242F0010299
:1006600083F8CA2093F8B52002F0F00242F00702A6
:1006700083F8B52030BC704700800041000802407C
:10068000000002C0000100400004004000080040DB
:1006900000040240064B1A6942F400521A611A69BA
:1006A00042F400121A61DA6942F40052DA617047CA
:1006B0000008004008B5044B984704490448054B1E
:1006C0009847054B984708BD950600000034004246
:1006D00074000020950B00000D050000164B93F8E8
:1006E000572002F0FB0283F8572093F8572002F0BE
:1006F000FE0242F0010283F8572093F83B2002F0FB
:100700000F0242F0300283F83B2093F8562002F0AB
:10071000FB0283F8562093F8562002F0FE0242F0C6
:10072000010283F8562093F83B2002F0F00242F0D9
:10073000030283F83B20704700800041064B4022B3
:10074000C3F80C214322C3F88C20044A136A43F0F7
:1007500002031362704700BF001C00400008004005
:1007600008B5044B984704490448054B9847054B86
:10077000984708BD3D0700000004004378000020B2
:10078000850A0000DD060000024A536943F48073C5
:10079000536170470008004008B5064B984748224F
:1007A00005490120054B98470548064B0360064B59
:1007B000984708BD890700005C1D0000590D000026
:1007C00070000020002000400915000008B50B4B08
:1007D00098470B4B98470B4B98470B4A536943F488
:1007E00000735361094B98470246094909480A4B6F
:1007F00098470A4B98470A4B984708BD010E0000DE
:1008000005040000ED04000000080040191300007A
:1008100000240040840000201D0D0000610700003E
:100820009907000008B5024B9847024B984708BD4E
:10083000B5060000E11C000070B582B005460E460A
:10084000094C01A92046094B984710212046084B26
:1008500098472046074B9847324629460198064B51
:10086000984702B070BD00BF78000020390B00002F
:10087000CD0A0000110B0000650B0000EFF31083A0
:10088000036072B6BFF35F8F7047BFF35F8F03687B
:1008900083F310887047000010B5044B1C68044BAC
:1008A000984701462046034B984710BD1C00002086
:1008B000C10D0000F90D000010B5044B1C68044B7D
:1008C000984701462046034B984710BD1C00002066
:1008D000D90D0000F90D000070B5124BD96888429F
:1008E0001DD00122032500241E46884287BF013205
:1008F000D4B202F1FF32D5B2A54212D32B195B104C
:10090000DAB2022A0DD8134606EBC20149688142C9
:10091000EBD1044A52F833301BB1984770BD012324
:10092000F7E770BD2000002008B5074B4FF0FF31FE
:10093000596000221A60D9609A6059611A610348AF
:10094000034B984708BD00BF20000020D9080000D5
:10095000150F000008B5436903B1984708BD08B5F5
:10096000836903B1984708BD38B50D46044690B178
:10097000081C18BF012038220849094B984729460E
:100980002046084B9847034618B9074A2260074A91
:100990006260184638BD0020EDE700BF781D0000FA
:1009A000590D000079100000550900005F09000092
:1009B0002DE9F8430F469046044620B329B3101C96
:1009C00018BF0120B6221249124B9847043C124D21
:1009D0002046A8470028FBD0013F0026DFF84090C2
:1009E0000D4D17F8011F2046C8472046A84700288C
:1009F000FBD00136B6B2B045F3D82046074B984736
:100A00003046BDE8F8830020DCE70020DAE700BFCD
:100A1000901D0000590D0000EB140000FF140000B1
:100A2000DD1400002DE9F8430F4690460446E0B17E
:100A3000E9B1101C18BF01209C220E490E4B9847AB
:100A4000013F0026043C0D4DDFF834902046A847B6
:100A50000028FBD02046C84707F8010F0136B6B280
:100A6000B045F3D83046BDE8F8830020E4E7002025
:100A7000E2E700BF901D0000590D0000F5140000D2
:100A8000E314000038B50D46044690B1081C18BFA9
:100A9000012035220849094B984729462046084B32
:100AA0009847034618B9074AA260074A6260184689
:100AB00038BD0020EDE700BF901D0000590D00007B
:100AC00079140000250A0000B109000038B50D4670
:100AD000044651220A49003018BF0120094B9847AB
:100AE0002046094B984720B129462046074B984796
:100AF00038BD05F07F012046044B984738BD00BF44
:100B0000901D0000590D0000C3140000CD1400001A
:100B100010B504465F220549003018BF0120044B80
:100B200098472046034B984710BD00BF901D00001A
:100B3000590D0000AD14000038B50D46044650B103
:100B4000081C18BF012073220449054B9847043440
:100B50002C60002038BD0020F5E700BF901D00008C
:100B6000590D000070B50D461646044660B1081CCC
:100B700018BF01203D220549054B9847636832465E
:100B800029462046984770BD0020F3E7AC1D0000C1
:100B9000590D000038B50C46054658B1081C18BF61
:100BA000012031220449054B984721462846044B31
:100BB000984738BD0020F4E7C01D0000590D000023
:100BC0004D11000010B504463F220549003018BF02
:100BD0000120044B98472046034B984710BD00BFA7
:100BE000C01D0000590D00008111000010B5044621
:100BF00046220549003018BF0120044B9847204683
:100C0000034B984710BD00BFC01D0000590D0000E8
:100C10008B11000038B50C46054658B1081C18BFAA
:100C200001204D220449054B984721462846044B94
:100C3000984738BD0020F4E7C01D0000590D0000A2
:100C400095110000F8B5844607682FB18D683C46C1
:100C50000026C2F1010E0BE00E4B9847F8BD73441D
:100C6000A0680344AB420AD22368264653B11C460F
:100C700063689342F3D8A06803449B1AF2E7A74243
:100C800004D034462046044B9847F8BD6046014BDB
:100C90009847F8BD810D0000AD0D00002DE9F0472B
:100CA0004469076901370761037E13F0010F13D10F
:100CB000037E13F0020F0FD154B36368FB1AA268CE
:100CC000934207D3064600F11408DFF84890DFF896
:100CD00048A012E0BDE8F087037E43F002030376EC
:100CE000BDE8F0877569E3682046984785B12C46D2
:100CF0006B68FB1AAA6893420AD34046C847237C14
:100D0000012BEFD167603A4621464046D047E9E7DC
:100D1000BDE8F087B50D0000450C000038B50D4664
:100D2000044678B1081C18BF01203B220649074B36
:100D3000984729462046064B984700202061054BDE
:100D4000236038BD0020F0E7DC1D0000590D0000D5
:100D5000B11200009D0C000000B900BE704703688E
:100D60004BB18B4209D01B681BB19942FBD10120CA
:100D70007047002070470020704701207047000036
:100D800038B504460D46064B984780F001003922DD
:100D90000449C0B2044B984723682B60256038BDD6
:100DA0005F0D0000F41D0000590D000003680B608A
:100DB0000160704703680BB11A68026018467047FB
:100DC000C0EB0010C0001D30024BA3FB0030000937
:100DD000704700BF89888888C0EB0010C3000233C9
:100DE0000348A0FB03235B08642000FB03F070476B
:100DF000ABAAAAAA000000000139FDD8704700BFC5
:100E000008B5084A13889BB21380074B9847074BD5
:100E10009847074B9847074B984740F6FF70064B9B
:100E2000984708BD00400041191100002D11000035
:100E300041100000491100001D100000F0B583B002
:100E40002F4B5A690192019A5A612E4B1868F02271
:100E50002D49003018BF01202C4B9847019B002BD7
:100E60004BD04FF0FF372A4D3BE0B64605EBCE0E98
:100E7000DEF80470B7F1FF3F03D0224B1B68384601
:100E80009847019B06FA04F423EA04040194019AAA
:100E900092FAA2F3B3FA83F3002A08BF4FF0FF33AC
:100EA00018D01C46062BE0D0062233460320002132
:100EB0009442C7BF0133D9B203F1FF33D8B28142A4
:100EC000D8D84318C3F347039E4615F83320A242EF
:100ED000EED1CBE70A4B5A690192019A5A61019B04
:100EE0005BB1019A92FAA2F3B3FA83F3002A0CBF22
:100EF0004FF0FF330126D4D1ECE703B0F0BD00BFC3
:100F000000280040380000202C1E0000590D000071
:100F1000141E0000354B5B6813F0010F1FD1334ADC
:100F2000536813F0030FFBD1304B1B7813F0020F03
:100F30000DD02E4A137803F0FD031370536813F09D
:100F4000030FFBD1294A536813F0020FFBD1012292
:100F5000264B1A701A46536813F0030FFBD1234A2D
:100F6000536813F0010FFBD1204A137803F0EF030D
:100F70001370536813F0030FFBD11C4B00225A70FF
:100F80009A609A611A635A63DA611A621A7842F0B7
:100F900002021A701A46536813F0030FFBD1144B68
:100FA0004FF40032C3F88020BFF34F8FBFF36F8F31
:100FB000C3F880211A604FF48022C3F88020BFF369
:100FC0004F8FBFF36F8FC3F880211A604FF4002258
:100FD000C3F88020BFF34F8FBFF36F8FC3F880211A
:100FE0001A60044B18600020704700BF00280040C2
:100FF00000E100E03800002008B5014B984708BD2B
:101000003D0E000008B5014B984708BD3D0E00009D
:1010100008B5014B984708BD3D0E000010F0010FC8
:1010200008D0054A054B1A62194643F6FD724B6813
:101030001342FCD1704700BF01010100001C0040B9
:101040000122014B5A7170470008004008B503693E
:101050001A8A12F0010F05D001221A82036853B1D7
:10106000984708BD1A8A92B22AB140F25E221A82CB
:10107000436803B1984708BD38B50C46054650B3E0
:101080001648814214BF002001204B221449154B01
:1010900098472C61238823F0C0039B049B0C23807A
:1010A000114B1D60114B4FF00051C3F88010BFF37E
:1010B0004F8FBFF36F8F4FF08042C3F88020BFF394
:1010C0004F8FBFF36F8FC3F88011C3F88021196071
:1010D0001A60002038BD0020D7E700BF0040004163
:1010E000441E0000590D00003C00002000E100E01B
:1010F00008B5024B1868024B984708BD3C00002019
:101100004D10000008B5024B1868024B984708BD07
:101110003C0000204D100000034BDA6902F47C52C1
:10112000DA6101221A74704700140040044A054B2A
:101130009A611A46136913F0020FFBD0704700BF83
:1011400006260003001000407047000038B50C462A
:10115000054670B1081C18BF012040220649074B04
:1011600098472C6001232360112363600020A06056
:1011700038BD0020F1E700BF641E0000590D0000DB
:10118000036802221A60002070470368002018607C
:101190007047000070B505460C4603680A7812F0E7
:1011A000200F1CBF8A681A630A7812F0100F05D04E
:1011B000596B21F0FF0122790A435A63227812F019
:1011C000400F06D05A6B22F47F02617942EA014255
:1011D0005A6322689A63237813F0800F0CD12B682E
:1011E0001F4A1A602A68D36913F4806FFBD04FF44A
:1011F0008063D361002070BD296813F0200F1ABFEF
:10120000A26802F180664FF080668B6B2369ABB1F8
:10121000012082221349144B984723699BB1E0684F
:1012200038B1721E184413F8011B02F8011F8342E3
:10123000F9D1BFF34F8FBFF36F8FD0E760690030F4
:1012400018BF0120E5E76369E1680029F1D0013B9F
:10125000314416F8012B03F8012FB142F9D1E8E728
:1012600002000001641E0000590D000000B583B0AB
:101270000D4B9B78DBB20193019B13F0020F06D05C
:101280000A4B1B681BB1084A5068984709E0019B4C
:1012900013F0010F05D0054B5B6813B1024A50688B
:1012A000984703B05DF804FB00000241A000002055
:1012B00038B50C46054630221449003018BF0120CD
:1012C000134B9847EC600123238048F20302236903
:1012D0001342FCD1EB681A6912F0010FFBD148F2FE
:1012E00080021A8048F203011A690A42FCD1EA68B6
:1012F00020231362136913F0600FFBD1EB684FF4E6
:1013000080725A81034B1D60002038BD7C1E000096
:10131000590D0000400000200020704710B5084B18
:101320001C68E3689B8913F4807F07D023680BB1A6
:1013300020469847E3684FF480729A8110BD00BF41
:101340004000002070B487B006466C460C4D0FCDAF
:101350000FC495E8030084E80300009BB3420CD05F
:10136000324601205DF82030934207D00130062834
:10137000F8D1002007B070BC70470020C0B2F9E778
:10138000941E000010B504461D4B9847052808D050
:1013900040F2B7721B4900201B4B98476FF00C00BE
:1013A00010BDE36913F0010F19D1E36913F0030FC6
:1013B000FBD1236813F0020F0BD0236823F0020344
:1013C0002360E36913F0030FFBD1E36913F0020F0D
:1013D000FBD111232360E36913F0030FFBD1E36911
:1013E00013F0010FFBD1094B2360E36913F0030FE6
:1013F000FBD14FF4A063636020236362002010BD23
:1014000045130000C41E0000590D0000100020000C
:1014100070B582B004460E46E36913F0030FFBD1AA
:101420002568C5F3400501A8114B9847236823F0B0
:1014300002032360E36913F0030FFBD1636A23F413
:10144000FF6323F0060340F2FE7101EA46011943EF
:10145000616201A8074B98473DB1236843F002033E
:101460002360E36913F0030FFBD1002002B070BDCD
:101470007D0800008B08000038B50C46054640F298
:10148000A6620749003018BF0120064B9847204646
:10149000054B9847034600B92C60184638BD00BF7D
:1014A000C41E0000590D0000851300000268136877
:1014B00043F002031360D36913F0030FFBD1002044
:1014C00070470368586AC0F3C030704708B50068B9
:1014D000014B984708BD00BF1114000003689962D2
:1014E00070470368986AC0B270470368187EC0F3FB
:1014F000800070470368187EC0F38000704703685F
:1015000004221A760020704710B5044630B30068F4
:10151000003018BF012050221449154B984723680A
:101520009A6812F00E0FFBD11A78D20918D19A6876
:1015300012F00E0FFBD11A7812F0020F13D11A78A5
:1015400002F0FB021A709A6812F00E0FFBD12268AB
:10155000537803F0F0035370002010BD0020DAE749
:101560006FF0100010BD6FF0100010BDE01E000005
:10157000590D00002DE9F04385B000AF204B98478E
:10158000204B9847204E4FF00408C1464FF47A7420
:10159000C6F8149032201D4DA847C6F81880322096
:1015A000A847013CF4D10A21381D194B9847194B23
:1015B00098473B79CC2BE9D17B79BB2BE6D16C46A4
:1015C000BB79FA79120442EA03627B7A1A43387AC9
:1015D000B97AFB7A1B0443EA0163797B0B43397BBD
:1015E00043EA0123D91D21F00701ADEB010D42EAC9
:1015F0000022694608480068084DA847A546C5E787
:10160000D10200008503000000800041B9080000FD
:101610003908000025080000B0000020EB1B000086
:1016200070B586B006680024009401940494007B91
:1016300010BB9DF8004004F0F80444F0B0048DF8AD
:1016400000409DF80100012464F305108DF80100AD
:1016500008259DF8024065F304048DF802400B2034
:101660008DF80400029203930591694630460B4BB6
:101670009847002006B070BD9DF80040062060F33A
:10168000020464F04F048DF800409DF8010001242D
:1016900064F305108DF801000A25DAE7150C000047
:1016A00030B589B004460D460068002301930293CB
:1016B00003930593237B7BBB9DF8043003F0F80371
:1016C00043F0F0038DF804309DF8053043F0030338
:1016D000012262F305138DF8053000229DF80630D3
:1016E00062F304038DF806300B238DF8083085F083
:1016F00001035B428DF80930012304930DF11F03B0
:10170000069301A90E4B9847002D14BF0223012315
:101710006373002009B030BD9DF80430062262F3E7
:10172000020363F00F038DF804309DF8053043F099
:101730000303012262F305138DF805300822CDE77B
:10174000150C000030B589B00446002307930568E6
:10175000019302930393059301F0070141F0900177
:101760008DF804108DF808200123049307AB06932D
:10177000437B43B901A92846074B9847637B33B99C
:10178000079809B030BD0021044B9847F2E70121CA
:101790002046024B9847F3E7150C0000A116000005
:1017A00070B504460668057B002D18BF062500218C
:1017B0000D4B98478522294620460C4B984710F040
:1017C000080F0ED1A36863B135683046084B9847BF
:1017D000A368984729463046064B98473046064B43
:1017E00098470020607370BDA116000045170000E7
:1017F000ED0B0000950B0000C50B000030B589B063
:10180000044601930568002302930393049307930E
:1018100001F0070141F090018DF80810022161F3F9
:1018200005138DF809308DF80C200123059301ABC9
:101830000693437B3BB902A92846074B9847637B35
:101840002BB909B030BD0021044B9847F3E70121C3
:101850002046024B9847F4E7150C0000A116000043
:10186000F8B5057B002D18BF0625437B0BB1002082
:10187000F8BD0446852229460D4B984710F0080F05
:1018800005D10121617320460A4B9847EFE700F02C
:10189000F703812229462046074EB0477027044EA1
:1018A0003A4629462046B04710F0800FF8D0E8E7C6
:1018B00045170000A1160000FD17000030B58FB0DD
:1018C0000568002A14BF0622042200230793089308
:1018D00009930A930B930C9301F0070141F0100058
:1018E0008DF81C008DF8202001930293039305933B
:1018F00041F090018DF8041005238DF80830012384
:1019000004930DF137030693064C07A92846A04718
:1019100001A92846A0479DF8373013F0020FF4D0F4
:101920000FB030BD150C00002DE9F04F87B0044614
:1019300090461F46D0F800B0002300930193059312
:1019400030238DF8013002238DF804300292039782
:101950000491037B002B14BF062200226FF04F037B
:1019600062F302038DF8003057B3DFF874A0DFF89C
:101970007490194ECDF80880B7F5807F92BF039719
:101980004FF48073039306AD15F8181D012201F082
:1019900007012046D04729465846C84770259DF87C
:1019A00000102A4601F007012046B04710F0800FD2
:1019B000F5D0039B049A1A4404929844FF1AD9D193
:1019C000637B1BB9002007B0BDE8F08F01212046E2
:1019D000024B9847F6E700BF45170000A11600002C
:1019E000BD180000150C00002DE9F04F87B08846A7
:1019F0001746D0F8009000230093019302930393BD
:101A000004930593037B002B14BF06210021B2F53C
:101A1000001F2CBF0022012241F0100362F3451386
:101A20008DF800304FF00003022262F305138DF8A9
:101A3000013047EA0803C3F30B03002B6FD10446C0
:101A4000B7F5001F07D2002F52D0DFF8DCB0DFF867
:101A5000DCA0344E2EE0C7238DF804300122324B37
:101A6000984769464846314B9847002740E0B7F50C
:101A7000805F3BD3CDF8088020238DF8043006AD7D
:101A800015F8181D012201F007012046D847294604
:101A90004846D04708F58058A7F5805770259DF82F
:101AA00000102A4601F007012046B04710F0800FD1
:101AB000F5D0EFB11FFA88F3002BD8D1B7F5803FEE
:101AC000D5D3CDF80880D8238DF8043006AD15F8AD
:101AD000181D012201F007012046D8472946484633
:101AE000D04708F58038A7F58037D7E76FF00C07A7
:101AF00070260C4D9DF80010324601F0070120467B
:101B0000A84710F0800FF5D0637B1BB9384607B0AB
:101B1000BDE8F08F01212046054B9847F6E76FF0AE
:101B20000C07F3E745170000BD180000150C000076
:101B3000A1160000F8B504460E46057B002D18BF1F
:101B4000062565222946184B9847237BB34217D0B8
:101B50000746B6B110F0800F12D026730122294635
:101B60002046124B984707F01F0361222946204662
:101B70000F4DA8470621652220460B4B9847267338
:101B8000F8BD10F0800FFBD12673012229462046B4
:101B9000064B984747F0C003612229462046044D72
:101BA000A8473146E7E700BF45170000BD18000011
:101BB000FD17000070B5044616461D46064A074B41
:101BC0009847002323736373A66029462046044B7D
:101BD0009847204670BD00BFF81E0000E51B0000BE
:101BE000351B000001604260704710B544682468EE
:101BF000A04710BD2DE9F041334B93F8482002F087
:101C0000FE0242F0010283F8482093F8342002F0EB
:101C1000F00283F8342093F8CB2002F0FE0242F069
:101C2000010283F8CB2093F8B52002F00F0283F86D
:101C3000B52093F8CA2002F0FE0242F0010283F8B8
:101C4000CA2093F8B52002F0F00283F8B5204FF4D3
:101C500080749C601D4A9A624FF040429A624FF431
:101C60000060C3F888001A49C3F8A810C3F8A82078
:101C70004FF48061C3F88810164DC3F8A850C3F81C
:101C8000A8209C61C3F89400C3F894100120124B63
:101C9000984707240C4E4FF48067B846C6F89880E2
:101CA00001200D4DA847C6F894700120A847013CBB
:101CB000F4D14FF40062044BC3F898200120A847E8
:101CC000064B9847BDE8F0810080004100010040CC
:101CD0000008004000040040990800000D050000C5
:101CE00010B5064C2046064B98470023054A21466E
:101CF0000548064CA047064B186010BD7400002034
:101D0000C50B0000F51B000044000020B51B0000BF
:101D1000B000002070B50D4E0D4CA41BA410002582
:101D2000A54209D10B4E0C4C00F0F0F8A41BA410F6
:101D30000025A54205D170BD56F8253098470135DC
:101D4000EEE756F8253098470135F2E7181F0000F6
:101D5000181F0000181F00001C1F00002E2E2F68E7
:101D6000616C2F696E636C7564652F68616C5F7759
:101D700064742E68000000002E2E2F68616C2F7393
:101D800072632F68616C5F666C6173682E6300001C
:101D90002E2E2F68616C2F7372632F68616C5F69E0
:101DA00032635F735F73796E632E63002E2E2F682C
:101DB000616C2F7372632F68616C5F696F2E6300B3
:101DC0002E2E2F68616C2F7372632F68616C5F71A8
:101DD0007370695F73796E632E6300002E2E2F6817
:101DE000616C2F7372632F68616C5F74696D6572CB
:101DF0002E6300002E2E2F68616C2F7574696C7332
:101E00002F7372632F7574696C735F6C6973742EB2
:101E1000630000000500000005000000060000004F
:101E20000600000007000000070000002E2E2F68AB
:101E3000706C2F6569632F68706C5F6569632E63D2
:101E4000000000002E2E2F68706C2F6E766D63746C
:101E5000726C2F68706C5F6E766D6374726C2E633B
:101E6000000000002E2E2F68706C2F717370692F88
:101E700068706C5F717370692E6300002E2E2F687E
:101E8000706C2F7274632F68706C5F7274632E6352
:101E900000000000003000400034004000200141FC
:101EA0000040014100000043000400430000000026
:101EB0000000000000000000000000000000000022
:101EC000000000002E2E2F68706C2F736572636FF8
:101ED0006D2F68706C5F736572636F6D2E630000A9
:101EE0002E2E2F68706C2F7764742F68706C5F775C
:101EF00064742E6300000000211600002919000000
:101F0000E919000061180000A1170000F8B500BF32
:101F1000F8BC08BC9E46704789020000F8B500BFB7
:0C1F2000F8BC08BC9E467047650200003B
:00000001FF
